{
  "contractName": "Crowdsale",
  "abi": [
    {
      "constant": true,
      "inputs": [],
      "name": "privateSaleRoundTwoTokensPerDollar",
      "outputs": [
        {
          "name": "",
          "type": "uint256"
        }
      ],
      "payable": false,
      "stateMutability": "view",
      "type": "function"
    },
    {
      "constant": true,
      "inputs": [],
      "name": "preSaleMinimumInvestment",
      "outputs": [
        {
          "name": "",
          "type": "uint256"
        }
      ],
      "payable": false,
      "stateMutability": "view",
      "type": "function"
    },
    {
      "constant": true,
      "inputs": [],
      "name": "privateRoundOneMinimumInvestment",
      "outputs": [
        {
          "name": "",
          "type": "uint256"
        }
      ],
      "payable": false,
      "stateMutability": "view",
      "type": "function"
    },
    {
      "constant": true,
      "inputs": [],
      "name": "publicsaleRaised",
      "outputs": [
        {
          "name": "",
          "type": "uint256"
        }
      ],
      "payable": false,
      "stateMutability": "view",
      "type": "function"
    },
    {
      "constant": true,
      "inputs": [],
      "name": "tokensForSale",
      "outputs": [
        {
          "name": "",
          "type": "uint256"
        }
      ],
      "payable": false,
      "stateMutability": "view",
      "type": "function"
    },
    {
      "constant": true,
      "inputs": [],
      "name": "bonusInPublicSale",
      "outputs": [
        {
          "name": "",
          "type": "uint256"
        }
      ],
      "payable": false,
      "stateMutability": "view",
      "type": "function"
    },
    {
      "constant": true,
      "inputs": [],
      "name": "bonusInPreSale",
      "outputs": [
        {
          "name": "",
          "type": "uint256"
        }
      ],
      "payable": false,
      "stateMutability": "view",
      "type": "function"
    },
    {
      "constant": true,
      "inputs": [],
      "name": "wallet",
      "outputs": [
        {
          "name": "",
          "type": "address"
        }
      ],
      "payable": false,
      "stateMutability": "view",
      "type": "function"
    },
    {
      "constant": true,
      "inputs": [],
      "name": "privateRoundTwoMinimumInvestment",
      "outputs": [
        {
          "name": "",
          "type": "uint256"
        }
      ],
      "payable": false,
      "stateMutability": "view",
      "type": "function"
    },
    {
      "constant": true,
      "inputs": [],
      "name": "crowdSaleStarted",
      "outputs": [
        {
          "name": "",
          "type": "bool"
        }
      ],
      "payable": false,
      "stateMutability": "view",
      "type": "function"
    },
    {
      "constant": false,
      "inputs": [],
      "name": "acceptOwnership",
      "outputs": [],
      "payable": false,
      "stateMutability": "nonpayable",
      "type": "function"
    },
    {
      "constant": true,
      "inputs": [],
      "name": "privateSaleRoundOneRaised",
      "outputs": [
        {
          "name": "",
          "type": "uint256"
        }
      ],
      "payable": false,
      "stateMutability": "view",
      "type": "function"
    },
    {
      "constant": true,
      "inputs": [],
      "name": "owner",
      "outputs": [
        {
          "name": "",
          "type": "address"
        }
      ],
      "payable": false,
      "stateMutability": "view",
      "type": "function"
    },
    {
      "constant": true,
      "inputs": [],
      "name": "softCap",
      "outputs": [
        {
          "name": "",
          "type": "uint256"
        }
      ],
      "payable": false,
      "stateMutability": "view",
      "type": "function"
    },
    {
      "constant": true,
      "inputs": [],
      "name": "privateSaleRoundOneTokensPerDollar",
      "outputs": [
        {
          "name": "",
          "type": "uint256"
        }
      ],
      "payable": false,
      "stateMutability": "view",
      "type": "function"
    },
    {
      "constant": true,
      "inputs": [],
      "name": "Paused",
      "outputs": [
        {
          "name": "",
          "type": "bool"
        }
      ],
      "payable": false,
      "stateMutability": "view",
      "type": "function"
    },
    {
      "constant": true,
      "inputs": [],
      "name": "bonusInPrivateSaleRoundOne",
      "outputs": [
        {
          "name": "",
          "type": "uint256"
        }
      ],
      "payable": false,
      "stateMutability": "view",
      "type": "function"
    },
    {
      "constant": true,
      "inputs": [],
      "name": "bonusInPrivateSaleRoundTwo",
      "outputs": [
        {
          "name": "",
          "type": "uint256"
        }
      ],
      "payable": false,
      "stateMutability": "view",
      "type": "function"
    },
    {
      "constant": true,
      "inputs": [],
      "name": "presaleRaised",
      "outputs": [
        {
          "name": "",
          "type": "uint256"
        }
      ],
      "payable": false,
      "stateMutability": "view",
      "type": "function"
    },
    {
      "constant": true,
      "inputs": [],
      "name": "totalRaisedInCents",
      "outputs": [
        {
          "name": "",
          "type": "uint256"
        }
      ],
      "payable": false,
      "stateMutability": "view",
      "type": "function"
    },
    {
      "constant": true,
      "inputs": [],
      "name": "publicsaleTokensPerDollar",
      "outputs": [
        {
          "name": "",
          "type": "uint256"
        }
      ],
      "payable": false,
      "stateMutability": "view",
      "type": "function"
    },
    {
      "constant": true,
      "inputs": [],
      "name": "privateSaleRoundTwoRaised",
      "outputs": [
        {
          "name": "",
          "type": "uint256"
        }
      ],
      "payable": false,
      "stateMutability": "view",
      "type": "function"
    },
    {
      "constant": true,
      "inputs": [],
      "name": "vestingAddress",
      "outputs": [
        {
          "name": "",
          "type": "address"
        }
      ],
      "payable": false,
      "stateMutability": "view",
      "type": "function"
    },
    {
      "constant": true,
      "inputs": [
        {
          "name": "",
          "type": "address"
        }
      ],
      "name": "whitelistedContributors",
      "outputs": [
        {
          "name": "",
          "type": "bool"
        }
      ],
      "payable": false,
      "stateMutability": "view",
      "type": "function"
    },
    {
      "constant": true,
      "inputs": [],
      "name": "newOwner",
      "outputs": [
        {
          "name": "",
          "type": "address"
        }
      ],
      "payable": false,
      "stateMutability": "view",
      "type": "function"
    },
    {
      "constant": true,
      "inputs": [],
      "name": "updateTime",
      "outputs": [
        {
          "name": "",
          "type": "uint256"
        }
      ],
      "payable": false,
      "stateMutability": "view",
      "type": "function"
    },
    {
      "constant": true,
      "inputs": [],
      "name": "presaleTokensPerDollar",
      "outputs": [
        {
          "name": "",
          "type": "uint256"
        }
      ],
      "payable": false,
      "stateMutability": "view",
      "type": "function"
    },
    {
      "constant": true,
      "inputs": [
        {
          "name": "",
          "type": "address"
        }
      ],
      "name": "PrivateSaleInvestor",
      "outputs": [
        {
          "name": "",
          "type": "bool"
        }
      ],
      "payable": false,
      "stateMutability": "view",
      "type": "function"
    },
    {
      "constant": false,
      "inputs": [
        {
          "name": "_newOwner",
          "type": "address"
        }
      ],
      "name": "transferOwnership",
      "outputs": [],
      "payable": false,
      "stateMutability": "nonpayable",
      "type": "function"
    },
    {
      "constant": true,
      "inputs": [],
      "name": "hardCap",
      "outputs": [
        {
          "name": "",
          "type": "uint256"
        }
      ],
      "payable": false,
      "stateMutability": "view",
      "type": "function"
    },
    {
      "constant": true,
      "inputs": [],
      "name": "token",
      "outputs": [
        {
          "name": "",
          "type": "address"
        }
      ],
      "payable": false,
      "stateMutability": "view",
      "type": "function"
    },
    {
      "constant": true,
      "inputs": [],
      "name": "ethPrice",
      "outputs": [
        {
          "name": "",
          "type": "uint256"
        }
      ],
      "payable": false,
      "stateMutability": "view",
      "type": "function"
    },
    {
      "inputs": [
        {
          "name": "_newOwner",
          "type": "address"
        },
        {
          "name": "_wallet",
          "type": "address"
        },
        {
          "name": "_token",
          "type": "address"
        },
        {
          "name": "_ethPriceInCents",
          "type": "uint256"
        }
      ],
      "payable": false,
      "stateMutability": "nonpayable",
      "type": "constructor"
    },
    {
      "payable": true,
      "stateMutability": "payable",
      "type": "fallback"
    },
    {
      "anonymous": false,
      "inputs": [
        {
          "indexed": false,
          "name": "nextStep",
          "type": "string"
        }
      ],
      "name": "LogConstructorInitiated",
      "type": "event"
    },
    {
      "anonymous": false,
      "inputs": [
        {
          "indexed": false,
          "name": "description",
          "type": "string"
        }
      ],
      "name": "newOraclizeQuery",
      "type": "event"
    },
    {
      "anonymous": false,
      "inputs": [
        {
          "indexed": false,
          "name": "myid",
          "type": "bytes32"
        },
        {
          "indexed": false,
          "name": "price",
          "type": "string"
        },
        {
          "indexed": false,
          "name": "proof",
          "type": "bytes"
        }
      ],
      "name": "newPriceTicker",
      "type": "event"
    },
    {
      "anonymous": false,
      "inputs": [
        {
          "indexed": true,
          "name": "purchaser",
          "type": "address"
        },
        {
          "indexed": true,
          "name": "beneficiary",
          "type": "address"
        },
        {
          "indexed": false,
          "name": "value",
          "type": "uint256"
        },
        {
          "indexed": false,
          "name": "amount",
          "type": "uint256"
        }
      ],
      "name": "TokenPurchase",
      "type": "event"
    },
    {
      "anonymous": false,
      "inputs": [
        {
          "indexed": true,
          "name": "from",
          "type": "address"
        },
        {
          "indexed": true,
          "name": "_to",
          "type": "address"
        }
      ],
      "name": "OwnershipTransferred",
      "type": "event"
    },
    {
      "constant": false,
      "inputs": [
        {
          "name": "addrs",
          "type": "address[]"
        }
      ],
      "name": "authorizeKyc",
      "outputs": [
        {
          "name": "success",
          "type": "bool"
        }
      ],
      "payable": false,
      "stateMutability": "nonpayable",
      "type": "function"
    },
    {
      "constant": false,
      "inputs": [
        {
          "name": "myid",
          "type": "bytes32"
        },
        {
          "name": "result",
          "type": "string"
        }
      ],
      "name": "__callback",
      "outputs": [],
      "payable": false,
      "stateMutability": "nonpayable",
      "type": "function"
    },
    {
      "constant": false,
      "inputs": [
        {
          "name": "myid",
          "type": "bytes32"
        },
        {
          "name": "result",
          "type": "string"
        },
        {
          "name": "proof",
          "type": "bytes"
        }
      ],
      "name": "__callback",
      "outputs": [],
      "payable": false,
      "stateMutability": "nonpayable",
      "type": "function"
    },
    {
      "constant": false,
      "inputs": [],
      "name": "update",
      "outputs": [],
      "payable": false,
      "stateMutability": "nonpayable",
      "type": "function"
    },
    {
      "constant": false,
      "inputs": [
        {
          "name": "_updateTime",
          "type": "uint256"
        }
      ],
      "name": "updatePeriodically",
      "outputs": [],
      "payable": false,
      "stateMutability": "nonpayable",
      "type": "function"
    },
    {
      "constant": false,
      "inputs": [],
      "name": "pause",
      "outputs": [],
      "payable": false,
      "stateMutability": "nonpayable",
      "type": "function"
    },
    {
      "constant": false,
      "inputs": [],
      "name": "restartSale",
      "outputs": [],
      "payable": false,
      "stateMutability": "nonpayable",
      "type": "function"
    },
    {
      "constant": false,
      "inputs": [],
      "name": "startPrivateSaleRoundOne",
      "outputs": [],
      "payable": false,
      "stateMutability": "nonpayable",
      "type": "function"
    },
    {
      "constant": false,
      "inputs": [],
      "name": "endPrivateSaleRoundOne",
      "outputs": [],
      "payable": false,
      "stateMutability": "nonpayable",
      "type": "function"
    },
    {
      "constant": false,
      "inputs": [],
      "name": "startPrivateSaleRoundTwo",
      "outputs": [],
      "payable": false,
      "stateMutability": "nonpayable",
      "type": "function"
    },
    {
      "constant": false,
      "inputs": [],
      "name": "endPrivateSaleRoundTwo",
      "outputs": [],
      "payable": false,
      "stateMutability": "nonpayable",
      "type": "function"
    },
    {
      "constant": false,
      "inputs": [],
      "name": "startPreIco",
      "outputs": [],
      "payable": false,
      "stateMutability": "nonpayable",
      "type": "function"
    },
    {
      "constant": false,
      "inputs": [],
      "name": "endPreIco",
      "outputs": [],
      "payable": false,
      "stateMutability": "nonpayable",
      "type": "function"
    },
    {
      "constant": false,
      "inputs": [],
      "name": "startIco",
      "outputs": [],
      "payable": false,
      "stateMutability": "nonpayable",
      "type": "function"
    },
    {
      "constant": false,
      "inputs": [],
      "name": "endIco",
      "outputs": [],
      "payable": false,
      "stateMutability": "nonpayable",
      "type": "function"
    },
    {
      "constant": true,
      "inputs": [],
      "name": "getStage",
      "outputs": [
        {
          "name": "",
          "type": "string"
        }
      ],
      "payable": false,
      "stateMutability": "view",
      "type": "function"
    },
    {
      "constant": false,
      "inputs": [
        {
          "name": "_privateRoundOne",
          "type": "uint256"
        },
        {
          "name": "_privateRoundTwo",
          "type": "uint256"
        },
        {
          "name": "_presale",
          "type": "uint256"
        }
      ],
      "name": "setMinInvestmentAmmount",
      "outputs": [],
      "payable": false,
      "stateMutability": "nonpayable",
      "type": "function"
    },
    {
      "constant": false,
      "inputs": [
        {
          "name": "_beneficiary",
          "type": "address"
        }
      ],
      "name": "buyTokens",
      "outputs": [],
      "payable": true,
      "stateMutability": "payable",
      "type": "function"
    },
    {
      "constant": false,
      "inputs": [
        {
          "name": "_ethPriceInCents",
          "type": "uint256"
        }
      ],
      "name": "setEthPriceInCents",
      "outputs": [
        {
          "name": "",
          "type": "bool"
        }
      ],
      "payable": false,
      "stateMutability": "nonpayable",
      "type": "function"
    },
    {
      "constant": false,
      "inputs": [
        {
          "name": "_beneficiary",
          "type": "address"
        },
        {
          "name": "_tokenAmount",
          "type": "uint256"
        }
      ],
      "name": "sendPrivateSaleTokens",
      "outputs": [],
      "payable": false,
      "stateMutability": "nonpayable",
      "type": "function"
    },
    {
      "constant": false,
      "inputs": [
        {
          "name": "_beneficiary",
          "type": "address"
        },
        {
          "name": "_tokenAmount",
          "type": "uint256"
        }
      ],
      "name": "sendPublicSaleTokens",
      "outputs": [],
      "payable": false,
      "stateMutability": "nonpayable",
      "type": "function"
    },
    {
      "constant": true,
      "inputs": [
        {
          "name": "_usdCents",
          "type": "uint256"
        }
      ],
      "name": "_getTokenAmount",
      "outputs": [
        {
          "name": "",
          "type": "uint256"
        }
      ],
      "payable": false,
      "stateMutability": "view",
      "type": "function"
    },
    {
      "constant": false,
      "inputs": [],
      "name": "burnTokens",
      "outputs": [],
      "payable": false,
      "stateMutability": "nonpayable",
      "type": "function"
    },
    {
      "constant": false,
      "inputs": [],
      "name": "finalizeSale",
      "outputs": [],
      "payable": false,
      "stateMutability": "nonpayable",
      "type": "function"
    },
    {
      "constant": false,
      "inputs": [
        {
          "name": "_privateSaleRoundOne",
          "type": "uint256"
        },
        {
          "name": "_privateSaleRoundTwo",
          "type": "uint256"
        },
        {
          "name": "_preSale",
          "type": "uint256"
        },
        {
          "name": "_publicSale",
          "type": "uint256"
        }
      ],
      "name": "setPriceforAllPhases",
      "outputs": [],
      "payable": false,
      "stateMutability": "nonpayable",
      "type": "function"
    },
    {
      "constant": false,
      "inputs": [
        {
          "name": "_bonusInPrivateSaleRoundOne",
          "type": "uint256"
        },
        {
          "name": "_bonusInPrivateSaleRoundTwo",
          "type": "uint256"
        },
        {
          "name": "_bonusInPreSale",
          "type": "uint256"
        },
        {
          "name": "_bonusInPublicSale",
          "type": "uint256"
        }
      ],
      "name": "setBonusforAllPhases",
      "outputs": [],
      "payable": false,
      "stateMutability": "nonpayable",
      "type": "function"
    },
    {
      "constant": false,
      "inputs": [
        {
          "name": "_vestingAddress",
          "type": "address"
        }
      ],
      "name": "setVestingAddress",
      "outputs": [],
      "payable": false,
      "stateMutability": "nonpayable",
      "type": "function"
    },
    {
      "constant": true,
      "inputs": [],
      "name": "isSoftCapReached",
      "outputs": [
        {
          "name": "",
          "type": "bool"
        }
      ],
      "payable": false,
      "stateMutability": "view",
      "type": "function"
    },
    {
      "constant": true,
      "inputs": [],
      "name": "bonusInCurrentSale",
      "outputs": [
        {
          "name": "",
          "type": "uint256"
        }
      ],
      "payable": false,
      "stateMutability": "view",
      "type": "function"
    },
    {
      "constant": true,
      "inputs": [],
      "name": "minimumInvestmentInCurrentSale",
      "outputs": [
        {
          "name": "",
          "type": "uint256"
        }
      ],
      "payable": false,
      "stateMutability": "view",
      "type": "function"
    },
    {
      "constant": true,
      "inputs": [],
      "name": "tokensPerDollarInCurrentSale",
      "outputs": [
        {
          "name": "",
          "type": "uint256"
        }
      ],
      "payable": false,
      "stateMutability": "view",
      "type": "function"
    }
  ],
  "bytecode": "0x6080604052600060088190556402540be400600a55631dcd6500600b556b026c62ad77dc602dae000000600c556016805460ff19169055601781905560188190556019819055601a553480156200005557600080fd5b5060405160808062003c66833981016040908152815160208301519183015160609093015160008054600160a060020a031916600160a060020a038085169190911790915591939183161515620000ab57600080fd5b600160a060020a0382161515620000c157600080fd5b60008111620000cf57600080fd5b600d8054600160a060020a0319908116600160a060020a03958616179091556000805482169585169590951785556009805490911692909316919091179091556007556020805460ff19169055613b399081906200012d90396000f3006080604052600436106102d15763ffffffff60e060020a600035041663019cfdfb81146102f8578063044f9afe1461031f57806306383d681461034b57806308003f78146103605780630c80e36d14610375578063112ec9ec1461038a57806312aef8c31461039f5780631ffbcc5d146103b457806324afc9e6146103c957806327dc297e146103de5780632bd910b41461043c5780632f7fe6b51461045157806330ff9d9314610475578063341881e61461048a578063385604d41461049f57806338bbfa50146104c05780633c86eac31461055c578063521eb2731461057157806358a687ec146105a25780635eb62d75146105b757806364eaf318146105db5780636cea50a1146105f05780637054e11f1461060557806370d7a0e71461061a578063747112851461063a57806379ba50971461064f5780637a99bb0a1461066457806380d32f851461067c57806382428323146106915780638456cb59146106a95780638694f340146106be57806389311e6f146106d35780638da5cb5b146106e8578063906a26e0146106fd5780639511920c146107125780639e87fac814610727578063a2e620451461073c578063a407e7a914610751578063a4fa061b14610766578063a657772f1461077b578063ac4d21f714610790578063bc950708146107a5578063be3a87a3146107ba578063bf9aa06a146107cf578063c06d1272146107e4578063c11a9a7b146107f9578063c77c73871461080e578063c7b850dd14610823578063d4ee1d9014610844578063dc55509014610859578063e3d2c1bf1461086e578063e4d75c9d14610883578063e657807b146108a4578063e71d82dd146108b9578063e90550fd146108da578063ec3872b0146108ef578063ec8ac4d81461090d578063f29f551014610921578063f2fde38b14610942578063fb86a40414610963578063fc0c546a14610978578063fcaa76641461098d578063ff186b2e14610a17575b600054600160a060020a031633146102f1576102ec33610a2c565b6102f6565b600080fd5b005b34801561030457600080fd5b5061030d610bac565b60408051918252519081900360200190f35b34801561032b57600080fd5b50610337600435610bb2565b604080519115158252519081900360200190f35b34801561035757600080fd5b5061030d610bd3565b34801561036c57600080fd5b506102f6610bd9565b34801561038157600080fd5b5061030d610c99565b34801561039657600080fd5b5061030d610c9f565b3480156103ab57600080fd5b5061030d610ca5565b3480156103c057600080fd5b5061030d610cab565b3480156103d557600080fd5b5061030d610cb1565b3480156103ea57600080fd5b5060408051602060046024803582810135601f81018590048502860185019096528585526102f6958335953695604494919390910191908190840183828082843750949750610d3a9650505050505050565b34801561044857600080fd5b5061030d610d5a565b34801561045d57600080fd5b506102f6600160a060020a0360043516602435610d60565b34801561048157600080fd5b506102f6610ec5565b34801561049657600080fd5b506102f6610f11565b3480156104ab57600080fd5b506102f6600435602435604435606435610f59565b3480156104cc57600080fd5b5060408051602060046024803582810135601f81018590048502860185019096528585526102f695833595369560449491939091019190819084018382808284375050604080516020601f89358b018035918201839004830284018301909452808352979a999881019791965091820194509250829150840183828082843750949750610f849650505050505050565b34801561056857600080fd5b5061030d6110d7565b34801561057d57600080fd5b50610586611160565b60408051600160a060020a039092168252519081900360200190f35b3480156105ae57600080fd5b506102f661116f565b3480156105c357600080fd5b506102f6600160a060020a0360043516602435611292565b3480156105e757600080fd5b5061030d6113e5565b3480156105fc57600080fd5b506103376113eb565b34801561061157600080fd5b506102f66113f4565b34801561062657600080fd5b50610337600480356024810191013561143c565b34801561064657600080fd5b506102f66114bd565b34801561065b57600080fd5b506102f6611524565b34801561067057600080fd5b5061030d60043561159f565b34801561068857600080fd5b5061033761177a565b34801561069d57600080fd5b506102f6600435611799565b3480156106b557600080fd5b506102f66119ac565b3480156106ca57600080fd5b5061030d611a2c565b3480156106df57600080fd5b506102f6611a32565b3480156106f457600080fd5b50610586611a7a565b34801561070957600080fd5b5061030d611a89565b34801561071e57600080fd5b5061030d611a8f565b34801561073357600080fd5b50610337611a95565b34801561074857600080fd5b506102f6611aa4565b34801561075d57600080fd5b506102f6611cc0565b34801561077257600080fd5b5061030d611d08565b34801561078757600080fd5b5061030d611d0e565b34801561079c57600080fd5b5061030d611d14565b3480156107b157600080fd5b5061030d611d1a565b3480156107c657600080fd5b5061030d611d20565b3480156107db57600080fd5b5061030d611d26565b3480156107f057600080fd5b506102f6611d2c565b34801561080557600080fd5b506102f6611d74565b34801561081a57600080fd5b50610586611dbc565b34801561082f57600080fd5b50610337600160a060020a0360043516611dcb565b34801561085057600080fd5b50610586611de0565b34801561086557600080fd5b5061030d611def565b34801561087a57600080fd5b5061030d611df5565b34801561088f57600080fd5b506102f6600160a060020a0360043516611dfb565b3480156108b057600080fd5b506102f6611e5f565b3480156108c557600080fd5b506102f6600435602435604435606435611ea7565b3480156108e657600080fd5b5061030d611ede565b3480156108fb57600080fd5b506102f6600435602435604435611f68565b6102f6600160a060020a0360043516610a2c565b34801561092d57600080fd5b50610337600160a060020a0360043516611f8d565b34801561094e57600080fd5b506102f6600160a060020a0360043516611fa2565b34801561096f57600080fd5b5061030d611fdb565b34801561098457600080fd5b50610586611fe1565b34801561099957600080fd5b506109a2611ff0565b6040805160208082528351818301528351919283929083019185019080838360005b838110156109dc5781810151838201526020016109c4565b50505050905090810190601f168015610a095780820380516001836020036101000a031916815260200191505b509250505060405180910390f35b348015610a2357600080fd5b5061030d612330565b6016546000908190819060ff161515610a4457600080fd5b600160a060020a03841660009081526021602052604090205460ff161515600114610a6e57600080fd5b600160a060020a03841660009081526022602052604090205460ff1615610a9457600080fd5b60205462010000900460ff16151560011415610aaf57600080fd5b34925060008311610abf57600080fd5b600754600010610ace57600080fd5b610afb670de0b6b3a7640000610aef6007548661233690919063ffffffff16565b9063ffffffff61236116565b9150610b0682612382565b610b0f8261159f565b9050610b1a82612426565b610b248482612541565b600d54604051600160a060020a03909116903480156108fc02916000818181858888f19350505050158015610b5d573d6000803e3d6000fd5b5060408051848152602081018390528151600160a060020a0387169233927f623b3804fa71d67900d064613da8f94b9617215ee90799290593e1745087ad18929081900390910190a350505050565b601d5481565b60008054600160a060020a03163314610bca57600080fd5b50600755600190565b60115481565b600054600160a060020a03163314610bf057600080fd5b600960205460ff166009811115610c0357fe5b14610c0d57600080fd5b600960009054906101000a9004600160a060020a0316600160a060020a0316631b65144d6040518163ffffffff1660e060020a028152600401602060405180830381600087803b158015610c6057600080fd5b505af1158015610c74573d6000803e3d6000fd5b505050506040513d6020811015610c8a57600080fd5b50511515610c9757600080fd5b565b600f5481565b601a5481565b600c5481565b60155481565b6000600260205460ff166009811115610cc657fe5b1415610cd55750601c54610d37565b600460205460ff166009811115610ce857fe5b1415610cf75750601d54610d37565b600660205460ff166009811115610d0a57fe5b1415610d195750601e54610d37565b600860205460ff166009811115610d2c57fe5b1415610d375750601f545b90565b604080516000815260208101909152610d569083908390610f84565b5050565b60145481565b60165460009060ff161515610d7457600080fd5b600054600160a060020a03163314610d8b57600080fd5b60205462010000900460ff16151560011415610da657600080fd5b600a54601b541115610db757600080fd5b600660205460ff166009811115610dca57fe5b1480610de65750600860205460ff166009811115610de457fe5b145b1515610df157600080fd5b600160a060020a03831660009081526022602052604090205460ff1615610e1757600080fd5b506009546040805160e060020a63836cb5b1028152600160a060020a038581166004830152670de0b6b3a764000085026024830181905260006044840181905293519094919091169263836cb5b192606480820193602093909283900390910190829087803b158015610e8957600080fd5b505af1158015610e9d573d6000803e3d6000fd5b505050506040513d6020811015610eb357600080fd5b50511515610ec057600080fd5b505050565b600054600160a060020a03163314610edc57600080fd5b60165460ff1615610eec57600080fd5b60168054600160ff1991821681179092556020805460029391921690835b0217905550565b600054600160a060020a03163314610f2857600080fd5b600660205460ff166009811115610f3b57fe5b14610f4557600080fd5b602080546007919060ff1916600183610f0a565b600054600160a060020a03163314610f7057600080fd5b601293909355601391909155601455601555565b610f8c61254b565b600160a060020a03163314610fa057600080fd5b610fab826002612740565b6007819055507fbbb1d35a5e7de79377b7af9c783b4a997ea7f2f218f68ff8d6ad60880279a7c48383836040518084600019166000191681526020018060200180602001838103835285818151815260200191508051906020019080838360005b8381101561102457818101518382015260200161100c565b50505050905090810190601f1680156110515780820380516001836020036101000a031916815260200191505b50838103825284518152845160209182019186019080838360005b8381101561108457818101518382015260200161106c565b50505050905090810190601f1680156110b15780820380516001836020036101000a031916815260200191505b509550505050505060405180910390a160006008541115610ec057610ec06008546128fa565b6000600260205460ff1660098111156110ec57fe5b14156110fb5750600f54610d37565b600460205460ff16600981111561110e57fe5b141561111d5750601054610d37565b600660205460ff16600981111561113057fe5b141561113f5750601154610d37565b600860205460ff16600981111561115257fe5b1415610d3757506000610d37565b600d54600160a060020a031681565b600054600160a060020a0316331461118657600080fd5b600960205460ff16600981111561119957fe5b146111a357600080fd5b600e54600160a060020a031615156111ba57600080fd5b600960009054906101000a9004600160a060020a0316600160a060020a0316634bb278f36040518163ffffffff1660e060020a028152600401600060405180830381600087803b15801561120d57600080fd5b505af1158015611221573d6000803e3d6000fd5b50505050600e60009054906101000a9004600160a060020a0316600160a060020a031663491b7a8f6040518163ffffffff1660e060020a028152600401600060405180830381600087803b15801561127857600080fd5b505af115801561128c573d6000803e3d6000fd5b50505050565b60165460009060ff1615156112a657600080fd5b600054600160a060020a031633146112bd57600080fd5b60205462010000900460ff161515600114156112d857600080fd5b600a54601b5411156112e957600080fd5b600260205460ff1660098111156112fc57fe5b14806113185750600460205460ff16600981111561131657fe5b145b806113335750600660205460ff16600981111561133157fe5b145b8061134e5750600860205460ff16600981111561134c57fe5b145b151561135957600080fd5b50600160a060020a038083166000818152602260209081526040808320805460ff19166001908117909155600954825160e060020a63836cb5b10281526004810196909652670de0b6b3a7640000880260248701819052604487019290925291519095919091169363836cb5b19360648083019493928390030190829087803b158015610e8957600080fd5b60105481565b60165460ff1681565b600054600160a060020a0316331461140b57600080fd5b600460205460ff16600981111561141e57fe5b1461142857600080fd5b602080546005919060ff1916600183610f0a565b6000805481908190600160a060020a0316331461145857600080fd5b5082905060005b818110156114b25760016021600087878581811061147957fe5b60209081029290920135600160a060020a0316835250810191909152604001600020805460ff191691151591909117905560010161145f565b506001949350505050565b600054600160a060020a031633146114d457600080fd5b600160205460ff1660098111156114e757fe5b146114f157600080fd5b6020805460ff610100820416919060ff1916600183600981111561151157fe5b02179055506020805462ff000019169055565b600154600160a060020a0316331461153b57600080fd5b60015460008054604051600160a060020a0393841693909116917f8be0079c531659141344cd1fd0a4f28419497f9722a3daafe3b4186f6b6457e091a36001805460008054600160a060020a0319908116600160a060020a03841617909155169055565b600080600080600080600080600080601660009054906101000a900460ff1615156115c957600080fd5b600260205460ff1660098111156115dc57fe5b141561163b5761160a6012546115fe6064601c5461236190919063ffffffff16565b9063ffffffff61233616565b9750611621601c5489612aef90919063ffffffff16565b9650611638876115fe8d606463ffffffff61236116565b98505b600460205460ff16600981111561164e57fe5b14156116a1576116706013546115fe6064601d5461236190919063ffffffff16565b9550611687601d5487612aef90919063ffffffff16565b945061169e856115fe8d606463ffffffff61236116565b98505b600660205460ff1660098111156116b457fe5b1415611706576116d560146115fe6064601e5461236190919063ffffffff16565b93506116ec601e5485612aef90919063ffffffff16565b9250611703836115fe8d606463ffffffff61236116565b98505b600860205460ff16600981111561171957fe5b141561176b5761173a60056115fe6064601f5461236190919063ffffffff16565b9150611751601f5483612aef90919063ffffffff16565b9050611768816115fe8d606463ffffffff61236116565b98505b50969998505050505050505050565b6000600b54601b5410151561179157506001610d37565b506000610d37565b600054600160a060020a031633146117b057600080fd5b6008819055604080518082019091526003815260ea60020a621554930260208201523031906117e290620249f0612aff565b111561188757604080516020808252604b908201527f4f7261636c697a6520717565727920776173204e4f542073656e742c20706c65818301527f6173652061646420736f6d652045544820746f20636f76657220666f7220746860608201527f652071756572792066656500000000000000000000000000000000000000000060808201529051600080516020613aee8339815191529181900360a00190a16119a9565b6040805160208082526035908201527f4f7261636c697a65207175657279207761732073656e742c207374616e64696e818301527f6720627920666f722074686520616e737765722e2e000000000000000000000060608201529051600080516020613aee8339815191529181900360800190a1610d5660408051908101604052806003815260200160ea60020a6215549302815250608060405190810160405280604c81526020017f6a736f6e2868747470733a2f2f6170692e6b72616b656e2e636f6d2f302f707581526020017f626c69632f5469636b65723f706169723d455448555344292e726573756c742e81526020017f584554485a5553442e632e300000000000000000000000000000000000000000815250620249f0612d70565b50565b600054600160a060020a031633146119c357600080fd5b60205462010000900460ff16156119d957600080fd5b60165460ff1615156001146119ed57600080fd5b6020805460ff8116919061ff001916610100836009811115611a0b57fe5b021790555060208054600160ff199091161762ff0000191662010000179055565b60175481565b600054600160a060020a03163314611a4957600080fd5b600760205460ff166009811115611a5c57fe5b14611a6657600080fd5b602080546008919060ff1916600183610f0a565b600054600160a060020a031681565b600b5481565b601c5481565b60205462010000900460ff1681565b600054600160a060020a03163314611abb57600080fd5b60006008541115611acc5760006008555b604080518082019091526003815260ea60020a62155493026020820152303190611af990620249f0612aff565b1115611b9e57604080516020808252604b908201527f4f7261636c697a6520717565727920776173204e4f542073656e742c20706c65818301527f6173652061646420736f6d652045544820746f20636f76657220666f7220746860608201527f652071756572792066656500000000000000000000000000000000000000000060808201529051600080516020613aee8339815191529181900360a00190a1610c97565b6040805160208082526035908201527f4f7261636c697a65207175657279207761732073656e742c207374616e64696e818301527f6720627920666f722074686520616e737765722e2e000000000000000000000060608201529051600080516020613aee8339815191529181900360800190a16119a960408051908101604052806003815260200160ea60020a6215549302815250608060405190810160405280604c81526020017f6a736f6e2868747470733a2f2f6170692e6b72616b656e2e636f6d2f302f707581526020017f626c69632f5469636b65723f706169723d455448555344292e726573756c742e81526020017f584554485a5553442e632e300000000000000000000000000000000000000000815250620249f0612d70565b600054600160a060020a03163314611cd757600080fd5b600360205460ff166009811115611cea57fe5b14611cf457600080fd5b602080546004919060ff1916600183610f0a565b60125481565b60135481565b60195481565b601b5481565b601f5481565b60185481565b600054600160a060020a03163314611d4357600080fd5b600560205460ff166009811115611d5657fe5b14611d6057600080fd5b602080546006919060ff1916600183610f0a565b600054600160a060020a03163314611d8b57600080fd5b600260205460ff166009811115611d9e57fe5b14611da857600080fd5b602080546003919060ff1916600183610f0a565b600e54600160a060020a031681565b60216020526000908152604090205460ff1681565b600154600160a060020a031681565b60085481565b601e5481565b600054600160a060020a03163314611e1257600080fd5b600160a060020a0381161515611e2757600080fd5b600e54600160a060020a031615611e3d57600080fd5b600e8054600160a060020a031916600160a060020a0392909216919091179055565b600054600160a060020a03163314611e7657600080fd5b600860205460ff166009811115611e8957fe5b14611e9357600080fd5b602080546009919060ff1916600183610f0a565b600054600160a060020a03163314611ebe57600080fd5b670de0b6b3a7640000938402601c55918302601d558202601e5502601f55565b6000600260205460ff166009811115611ef357fe5b1415611f025750601254610d37565b600460205460ff166009811115611f1557fe5b1415611f245750601354610d37565b600660205460ff166009811115611f3757fe5b1415611f465750601454610d37565b600860205460ff166009811115611f5957fe5b14156117915750601554610d37565b600054600160a060020a03163314611f7f57600080fd5b600f92909255601055601155565b60226020526000908152604090205460ff1681565b600054600160a060020a03163314611fb957600080fd5b60018054600160a060020a031916600160a060020a0392909216919091179055565b600a5481565b600954600160a060020a031681565b6060600260205460ff16600981111561200557fe5b1415612045575060408051808201909152601681527f507269766174652073616c6520526f756e64206f6e65000000000000000000006020820152610d37565b600360205460ff16600981111561205857fe5b1415612098575060408051808201909152601a81527f507269766174652073616c6520526f756e64206f6e6520656e640000000000006020820152610d37565b600460205460ff1660098111156120ab57fe5b14156120eb575060408051808201909152601681527f507269766174652073616c6520526f756e642054776f000000000000000000006020820152610d37565b600560205460ff1660098111156120fe57fe5b141561213e575060408051808201909152601a81527f507269766174652073616c6520526f756e642054776f20456e640000000000006020820152610d37565b600660205460ff16600981111561215157fe5b1415612191575060408051808201909152600781527f5072652049434f000000000000000000000000000000000000000000000000006020820152610d37565b600760205460ff1660098111156121a457fe5b14156121e4575060408051808201909152600b81527f5072652049434f20456e640000000000000000000000000000000000000000006020820152610d37565b600860205460ff1660098111156121f757fe5b1415612237575060408051808201909152600a81527f5075626c69632049636f000000000000000000000000000000000000000000006020820152610d37565b600960205460ff16600981111561224a57fe5b141561228a575060408051808201909152600e81527f5075626c69632049636f20456e640000000000000000000000000000000000006020820152610d37565b600060205460ff16600981111561229d57fe5b14156122dd575060408051808201909152601981527f63726f776453616c65204e6f74205374617274656420796574000000000000006020820152610d37565b600160205460ff1660098111156122f057fe5b1415610d37575060408051808201909152600681527f70617573656400000000000000000000000000000000000000000000000000006020820152610d37565b60075481565b818102821580612350575081838281151561234d57fe5b04145b151561235b57600080fd5b92915050565b600080821161236f57600080fd5b818381151561237a57fe5b049392505050565b600260205460ff16600981111561239557fe5b14156123af57600f548110156123aa57600080fd5b6119a9565b600460205460ff1660098111156123c257fe5b14156123d7576010548110156123aa57600080fd5b600660205460ff1660098111156123ea57fe5b14156123ff576011548110156123aa57600080fd5b600860205460ff16600981111561241257fe5b14156102f15760008110156123aa57600080fd5b600260205460ff16600981111561243957fe5b141561247b57601754612452908263ffffffff612aef16565b601755601b54612468908263ffffffff612aef16565b601b819055600a5410156123aa57600080fd5b600460205460ff16600981111561248e57fe5b14156124bd576018546124a7908263ffffffff612aef16565b601855601b54612468908263ffffffff612aef16565b600660205460ff1660098111156124d057fe5b14156124ff576019546124e9908263ffffffff612aef16565b601955601b54612468908263ffffffff612aef16565b600860205460ff16600981111561251257fe5b14156102f157601a5461252b908263ffffffff612aef16565b601a55601b54612468908263ffffffff612aef16565b610d568282613175565b600254600090600160a060020a03161580612578575060025461257690600160a060020a031661330b565b155b1561258957612587600061330f565b505b600260009054906101000a9004600160a060020a0316600160a060020a03166338cc48316040518163ffffffff1660e060020a028152600401602060405180830381600087803b1580156125dc57600080fd5b505af11580156125f0573d6000803e3d6000fd5b505050506040513d602081101561260657600080fd5b5051600354600160a060020a039081169116146126bc57600260009054906101000a9004600160a060020a0316600160a060020a03166338cc48316040518163ffffffff1660e060020a028152600401602060405180830381600087803b15801561267057600080fd5b505af1158015612684573d6000803e3d6000fd5b505050506040513d602081101561269a57600080fd5b505160038054600160a060020a031916600160a060020a039092169190911790555b600360009054906101000a9004600160a060020a0316600160a060020a031663c281d19e6040518163ffffffff1660e060020a028152600401602060405180830381600087803b15801561270f57600080fd5b505af1158015612723573d6000803e3d6000fd5b505050506040513d602081101561273957600080fd5b5051905090565b6000828180805b83518110156128dd5783517f30000000000000000000000000000000000000000000000000000000000000009085908390811061278057fe5b90602001015160f860020a900460f860020a027effffffffffffffffffffffffffffffffffffffffffffffffffffffffffffff191610158015612826575083517f3900000000000000000000000000000000000000000000000000000000000000908590839081106127ee57fe5b90602001015160f860020a900460f860020a027effffffffffffffffffffffffffffffffffffffffffffffffffffffffffffff191611155b1561287f5781156128455785151561283d576128dd565b600019909501945b600a830292506030848281518110151561285b57fe5b90602001015160f860020a900460f860020a0260f860020a900403830192506128d5565b838181518110151561288d57fe5b90602001015160f860020a900460f860020a027effffffffffffffffffffffffffffffffffffffffffffffffffffffffffffff1916602e60f860020a0214156128d557600191505b600101612747565b60008611156128ef5785600a0a830292505b509095945050505050565b604080518082019091526003815260ea60020a6215549302602082015230319061292790620249f0612aff565b11156129cc57604080516020808252604b908201527f4f7261636c697a6520717565727920776173204e4f542073656e742c20706c65818301527f6173652061646420736f6d652045544820746f20636f76657220666f7220746860608201527f652071756572792066656500000000000000000000000000000000000000000060808201529051600080516020613aee8339815191529181900360a00190a16119a9565b6040805160208082526035908201527f4f7261636c697a65207175657279207761732073656e742c207374616e64696e818301527f6720627920666f722074686520616e737765722e2e000000000000000000000060608201529051600080516020613aee8339815191529181900360800190a1610d568160408051908101604052806003815260200160ea60020a6215549302815250608060405190810160405280604c81526020017f6a736f6e2868747470733a2f2f6170692e6b72616b656e2e636f6d2f302f707581526020017f626c69632f5469636b65723f706169723d455448555344292e726573756c742e81526020017f584554485a5553442e632e300000000000000000000000000000000000000000815250620249f0613319565b8181018281101561235b57600080fd5b600254600090600160a060020a03161580612b2c5750600254612b2a90600160a060020a031661330b565b155b15612b3d57612b3b600061330f565b505b600260009054906101000a9004600160a060020a0316600160a060020a03166338cc48316040518163ffffffff1660e060020a028152600401602060405180830381600087803b158015612b9057600080fd5b505af1158015612ba4573d6000803e3d6000fd5b505050506040513d6020811015612bba57600080fd5b5051600354600160a060020a03908116911614612c7057600260009054906101000a9004600160a060020a0316600160a060020a03166338cc48316040518163ffffffff1660e060020a028152600401602060405180830381600087803b158015612c2457600080fd5b505af1158015612c38573d6000803e3d6000fd5b505050506040513d6020811015612c4e57600080fd5b505160038054600160a060020a031916600160a060020a039092169190911790555b600354604080517f2ef3accc0000000000000000000000000000000000000000000000000000000081526024810185905260048101918252855160448201528551600160a060020a0390931692632ef3accc9287928792829160640190602086019080838360005b83811015612cf0578181015183820152602001612cd8565b50505050905090810190601f168015612d1d5780820380516001836020036101000a031916815260200191505b509350505050602060405180830381600087803b158015612d3d57600080fd5b505af1158015612d51573d6000803e3d6000fd5b505050506040513d6020811015612d6757600080fd5b50519392505050565b6002546000908190600160a060020a03161580612d9f5750600254612d9d90600160a060020a031661330b565b155b15612db057612dae600061330f565b505b600260009054906101000a9004600160a060020a0316600160a060020a03166338cc48316040518163ffffffff1660e060020a028152600401602060405180830381600087803b158015612e0357600080fd5b505af1158015612e17573d6000803e3d6000fd5b505050506040513d6020811015612e2d57600080fd5b5051600354600160a060020a03908116911614612ee357600260009054906101000a9004600160a060020a0316600160a060020a03166338cc48316040518163ffffffff1660e060020a028152600401602060405180830381600087803b158015612e9757600080fd5b505af1158015612eab573d6000803e3d6000fd5b505050506040513d6020811015612ec157600080fd5b505160038054600160a060020a031916600160a060020a039092169190911790555b600354604080517f2ef3accc0000000000000000000000000000000000000000000000000000000081526024810186905260048101918252875160448201528751600160a060020a0390931692632ef3accc9289928892829160640190602086019080838360005b83811015612f63578181015183820152602001612f4b565b50505050905090810190601f168015612f905780820380516001836020036101000a031916815260200191505b509350505050602060405180830381600087803b158015612fb057600080fd5b505af1158015612fc4573d6000803e3d6000fd5b505050506040513d6020811015612fda57600080fd5b50519050670de0b6b3a76400003a840201811115612ffb576000915061316d565b6003546040517fc51be90f00000000000000000000000000000000000000000000000000000000815260006004820181815260648301879052608060248401908152895160848501528951600160a060020a039095169463c51be90f948794938c938c938c93604481019160a49091019060208801908083838c5b8381101561308e578181015183820152602001613076565b50505050905090810190601f1680156130bb5780820380516001836020036101000a031916815260200191505b50838103825285518152855160209182019187019080838360005b838110156130ee5781810151838201526020016130d6565b50505050905090810190601f16801561311b5780820380516001836020036101000a031916815260200191505b5096505050505050506020604051808303818588803b15801561313d57600080fd5b505af1158015613151573d6000803e3d6000fd5b50505050506040513d602081101561316857600080fd5b505191505b509392505050565b600260205460ff16600981111561318857fe5b14806131a45750600460205460ff1660098111156131a257fe5b145b1561326057600160a060020a038083166000818152602260209081526040808320805460ff19166001908117909155600954825160e060020a63836cb5b10281526004810196909652602486018890526044860191909152905194169363836cb5b193606480820194918390030190829087803b15801561322457600080fd5b505af1158015613238573d6000803e3d6000fd5b505050506040513d602081101561324e57600080fd5b5051151561325b57600080fd5b610d56565b600160a060020a038083166000818152602260209081526040808320805460ff19169055600954815160e060020a63836cb5b102815260048101959095526024850187905260448501849052905194169363836cb5b193606480820194918390030190829087803b1580156132d457600080fd5b505af11580156132e8573d6000803e3d6000fd5b505050506040513d60208110156132fe57600080fd5b50511515610d5657600080fd5b3b90565b600061235b61371f565b6002546000908190600160a060020a03161580613348575060025461334690600160a060020a031661330b565b155b1561335957613357600061330f565b505b600260009054906101000a9004600160a060020a0316600160a060020a03166338cc48316040518163ffffffff1660e060020a028152600401602060405180830381600087803b1580156133ac57600080fd5b505af11580156133c0573d6000803e3d6000fd5b505050506040513d60208110156133d657600080fd5b5051600354600160a060020a0390811691161461348c57600260009054906101000a9004600160a060020a0316600160a060020a03166338cc48316040518163ffffffff1660e060020a028152600401602060405180830381600087803b15801561344057600080fd5b505af1158015613454573d6000803e3d6000fd5b505050506040513d602081101561346a57600080fd5b505160038054600160a060020a031916600160a060020a039092169190911790555b600354604080517f2ef3accc0000000000000000000000000000000000000000000000000000000081526024810186905260048101918252875160448201528751600160a060020a0390931692632ef3accc9289928892829160640190602086019080838360005b8381101561350c5781810151838201526020016134f4565b50505050905090810190601f1680156135395780820380516001836020036101000a031916815260200191505b509350505050602060405180830381600087803b15801561355957600080fd5b505af115801561356d573d6000803e3d6000fd5b505050506040513d602081101561358357600080fd5b50519050670de0b6b3a76400003a8402018111156135a45760009150613716565b6003546040517fc51be90f0000000000000000000000000000000000000000000000000000000081526004810188815260648201869052608060248301908152885160848401528851600160a060020a039094169363c51be90f9386938c938c938c938c939291604482019160a40190602088019080838360005b8381101561363757818101518382015260200161361f565b50505050905090810190601f1680156136645780820380516001836020036101000a031916815260200191505b50838103825285518152855160209182019187019080838360005b8381101561369757818101518382015260200161367f565b50505050905090810190601f1680156136c45780820380516001836020036101000a031916815260200191505b5096505050505050506020604051808303818588803b1580156136e657600080fd5b505af11580156136fa573d6000803e3d6000fd5b50505050506040513d602081101561371157600080fd5b505191505b50949350505050565b60008061373f731d3b2638a7cc9f2cb3d298a3da7a90b67e5506ed61330b565b11156137b05760028054600160a060020a031916731d3b2638a7cc9f2cb3d298a3da7a90b67e5506ed17905560408051808201909152600b81527f6574685f6d61696e6e657400000000000000000000000000000000000000000060208201526137a890613a47565b506001610d37565b60006137cf73c03a2615d5efaf5f49f60b7bb6583eaec212fdf161330b565b11156138385760028054600160a060020a03191673c03a2615d5efaf5f49f60b7bb6583eaec212fdf117905560408051808201909152600c81527f6574685f726f707374656e33000000000000000000000000000000000000000060208201526137a890613a47565b600061385773b7a07bcf2ba2f2703b24c0691b5278999c59ac7e61330b565b11156138c05760028054600160a060020a03191673b7a07bcf2ba2f2703b24c0691b5278999c59ac7e17905560408051808201909152600981527f6574685f6b6f76616e000000000000000000000000000000000000000000000060208201526137a890613a47565b60006138df73146500cfd35b22e4a392fe0adc06de1a1368ed4861330b565b11156139485760028054600160a060020a03191673146500cfd35b22e4a392fe0adc06de1a1368ed4817905560408051808201909152600b81527f6574685f72696e6b65627900000000000000000000000000000000000000000060208201526137a890613a47565b6000613967736f485c8bf6fc43ea212e93bbf8ce046c7f1cb47561330b565b111561399b575060028054600160a060020a031916736f485c8bf6fc43ea212e93bbf8ce046c7f1cb4751790556001610d37565b60006139ba7320e12a1f859b3feae5fb2a0a32c18f5a65555bbf61330b565b11156139ee575060028054600160a060020a0319167320e12a1f859b3feae5fb2a0a32c18f5a65555bbf1790556001610d37565b6000613a0d7351efaf4c8b3c9afbd5ab9f4bbc82784ab6ef8faa61330b565b1115613a41575060028054600160a060020a0319167351efaf4c8b3c9afbd5ab9f4bbc82784ab6ef8faa1790556001610d37565b50600090565b8051610d56906004906020840190828054600181600116156101000203166002900490600052602060002090601f016020900481019282601f10613a9657805160ff1916838001178555613ac3565b82800160010185558215613ac3579182015b82811115613ac3578251825591602001919060010190613aa8565b50613acf929150613ad3565b5090565b610d3791905b80821115613acf5760008155600101613ad9560046cb989ef9cef13e930e3b7f286225a086e716a90d63e0b7da85d310a9db0c9aa165627a7a72305820df53de9f6d5fa6d822d60b9be2ad3d5bba2729222b91f068177d9bb3f653125f0029",
  "source": "pragma solidity  ^0.4.24;\nimport \"./SafeMath.sol\";\nimport \"./Owned.sol\";\nimport \"./Oraclize.sol\";\n\ncontract RamaToken {\n\n    function transfer (address, uint) public;\n    function burnTokensForSale() public returns (bool);\n    function saleTransfer(address, uint256,bool) public  returns (bool);\n    function finalize() public;\n}\n\ncontract TokenVesting{\n\n    function setIcoFinalizedTime() public;\n\n}\n\n\ncontract Crowdsale is Owned, usingOraclize { \n  \n  using SafeMath for uint256;\n  uint256 public ethPrice; // 1 Ether price in USD cents.\n  uint256 constant CUSTOM_GASLIMIT = 150000;\n  uint256 public updateTime = 0;\n  // end oraclize variables\n\n  //Oraclize events\n  event LogConstructorInitiated(string nextStep);\n  event newOraclizeQuery(string description);\n  event newPriceTicker(bytes32 myid, string price, bytes proof);\n  // End oraclize events\n\n  // The token being sold\n  RamaToken public token;\n  uint256 public hardCap = 10000000000;\n  uint256 public softCap = 500000000; \n  uint public tokensForSale = 750000000 * 1 ether;\n  // Address where funds are collected\n  address public wallet;\n  address public vestingAddress;\n  \n  uint256 public privateRoundOneMinimumInvestment;\n  uint256 public privateRoundTwoMinimumInvestment;\n  uint256 public preSaleMinimumInvestment;\n  \n  uint256 public bonusInPrivateSaleRoundOne;\n  uint256 public bonusInPrivateSaleRoundTwo;\n  uint256 public bonusInPreSale;\n  uint256 public bonusInPublicSale;\n\n  \n  bool public crowdSaleStarted = false;\n\n  uint256 public privateSaleRoundOneRaised = 0;\n  uint256 public privateSaleRoundTwoRaised = 0;\n  uint256 public presaleRaised = 0;  \n  uint256 public publicsaleRaised = 0;\n\n  // Amount of wei raised\n  uint256 public totalRaisedInCents;\n  \n\n  uint256 public privateSaleRoundOneTokensPerDollar;\n  uint256 public privateSaleRoundTwoTokensPerDollar;\n  uint256 public presaleTokensPerDollar;\n  uint256 public publicsaleTokensPerDollar;\n  \n  enum Stages {CrowdSaleNotStarted, Pause, PrivateSaleRoundOneStart, PrivateSaleRoundOneEnd, PrivateSaleRoundTwoStart, PrivateSaleRoundTwoEnd, PreSaleStart, PreSaleEnd, PublicSaleStart, PublicSaleEnd}\n  Stages currentStage;\n  Stages previousStage;\n  bool public Paused;\n\n   // adreess vs state mapping (1 for exists , zero default);\n   mapping (address => bool) public whitelistedContributors;\n   mapping (address => bool) public PrivateSaleInvestor;\n  \n   modifier CrowdsaleStarted(){\n      require(crowdSaleStarted);\n      _;\n   }\n \n    /**\n    * Event for token purchase logging\n    * @param purchaser who paid for the tokens\n    * @param beneficiary who got the tokens\n    * @param value weis paid for purchase\n    * @param amount amount of tokens purchased\n    */\n    event TokenPurchase(address indexed purchaser, address indexed beneficiary, uint256 value, uint256 amount);\n\n    /**\n    *@dev initializes the crowdsale contract \n    * @param _newOwner Address who has special power to change the ether price in cents according to the market price\n    * @param _wallet Address where collected funds will be forwarded to\n    * @param _token Address of the token being sold\n    *  @param _ethPriceInCents ether price in cents\n    */\n    constructor(address _newOwner, address _wallet, RamaToken _token,uint256 _ethPriceInCents) Owned(_newOwner) public {\n        require(_wallet != address(0));\n        require(_token != address(0));\n        require(_ethPriceInCents > 0);\n        wallet = _wallet;\n        owner = _newOwner;\n        token = _token;\n        ethPrice = _ethPriceInCents; //ethPrice in cents\n        currentStage = Stages.CrowdSaleNotStarted;\n        // oraclize_setProof(proofType_TLSNotary | proofStorage_IPFS);\n        // LogConstructorInitiated(\"Constructor was initiated. Call 'update()' to send the Oraclize Query.\");\n    }\n    \n\n    function () external payable {\n    \n     if(msg.sender != owner){\n        buyTokens(msg.sender); \n     }\n     else{\n     revert();\n     }\n     \n    }\n    /**\n    * @dev whitelist addresses of investors.\n    * @param addrs ,array of addresses of investors to be whitelisted\n    * Note:= Array length must be less than 200.\n    */\n    function authorizeKyc(address[] addrs) external onlyOwner returns (bool success) {\n        uint arrayLength = addrs.length;\n        for (uint x = 0; x < arrayLength; x++) {\n            whitelistedContributors[addrs[x]] = true;\n        }\n\n        return true;\n    }\n    \n    // Begin : oraclize related functions \n    function __callback(bytes32 myid, string result, bytes proof) public {\n        if (msg.sender != oraclize_cbAddress()) revert();\n        ethPrice = parseInt(result, 2);\n        emit newPriceTicker(myid, result, proof); //event\n        if (updateTime > 0) updateAfter(updateTime);\n    }\n\n    function update() public onlyOwner {\n        if (updateTime > 0) updateTime = 0;\n        if (oraclize_getPrice(\"URL\", CUSTOM_GASLIMIT) > address(this).balance) {\n            emit newOraclizeQuery(\"Oraclize query was NOT sent, please add some ETH to cover for the query fee\"); //event\n        } else {\n            emit newOraclizeQuery(\"Oraclize query was sent, standing by for the answer..\"); //event\n            oraclize_query(\"URL\", \"json(https://api.kraken.com/0/public/Ticker?pair=ETHUSD).result.XETHZUSD.c.0\", CUSTOM_GASLIMIT);\n        }\n    }\n\n    function updatePeriodically(uint256 _updateTime) public onlyOwner {\n        updateTime = _updateTime;\n        if (oraclize_getPrice(\"URL\", CUSTOM_GASLIMIT) > address(this).balance) {\n            emit newOraclizeQuery(\"Oraclize query was NOT sent, please add some ETH to cover for the query fee\");\n        } else {\n            emit newOraclizeQuery(\"Oraclize query was sent, standing by for the answer..\");\n            oraclize_query(\"URL\", \"json(https://api.kraken.com/0/public/Ticker?pair=ETHUSD).result.XETHZUSD.c.0\", CUSTOM_GASLIMIT);\n        }\n    }\n\n    function updateAfter(uint256 _updateTime) internal {\n        if (oraclize_getPrice(\"URL\", CUSTOM_GASLIMIT) > address(this).balance) {\n            emit newOraclizeQuery(\"Oraclize query was NOT sent, please add some ETH to cover for the query fee\");\n        } else {\n            emit newOraclizeQuery(\"Oraclize query was sent, standing by for the answer..\");\n            oraclize_query(_updateTime, \"URL\", \"json(https://api.kraken.com/0/public/Ticker?pair=ETHUSD).result.XETHZUSD.c.0\", CUSTOM_GASLIMIT);\n        }\n    }\n\n    // END : oraclize related functions \n\n    /**\n    * @dev calling this function will pause the sale\n    */\n    \n    function pause() public onlyOwner {\n      require(Paused==false);\n      require(crowdSaleStarted == true);\n      previousStage=currentStage;\n      currentStage=Stages.Pause;\n      Paused = true;\n    }\n  \n    function restartSale() public onlyOwner {\n      require(currentStage==Stages.Pause);\n      currentStage=previousStage;\n      Paused = false;\n    }\n\n    function startPrivateSaleRoundOne() public onlyOwner {\n      require(!crowdSaleStarted);\n      crowdSaleStarted = true;\n      currentStage = Stages.PrivateSaleRoundOneStart;\n    }\n\n    function endPrivateSaleRoundOne() public onlyOwner {\n\n      require(currentStage == Stages.PrivateSaleRoundOneStart);\n      currentStage = Stages.PrivateSaleRoundOneEnd;\n\n    }\n\n    function startPrivateSaleRoundTwo() public onlyOwner {\n\n    require(currentStage == Stages.PrivateSaleRoundOneEnd);\n    currentStage = Stages.PrivateSaleRoundTwoStart;\n   \n    }\n\n    function endPrivateSaleRoundTwo() public onlyOwner {\n\n    require(currentStage == Stages.PrivateSaleRoundTwoStart);\n    currentStage = Stages.PrivateSaleRoundTwoEnd;\n   \n    }\n\n    function startPreIco() public onlyOwner {\n    require(currentStage == Stages.PrivateSaleRoundTwoEnd);\n    currentStage = Stages.PreSaleStart;\n   \n    }\n\n    function endPreIco() public onlyOwner {\n    require(currentStage == Stages.PreSaleStart);\n    currentStage = Stages.PreSaleEnd;\n    }\n\n    function startIco() public onlyOwner {\n    require(currentStage == Stages.PreSaleEnd);\n    currentStage = Stages.PublicSaleStart;\n    }\n\n    function endIco() public onlyOwner {\n    require(currentStage == Stages.PublicSaleStart);\n    currentStage = Stages.PublicSaleEnd;\n    \n    }\n\n    function getStage() public view returns (string) {\n    if (currentStage == Stages.PrivateSaleRoundOneStart) return 'Private sale Round one';\n    else if (currentStage == Stages.PrivateSaleRoundOneEnd) return 'Private sale Round one end';\n    else if (currentStage == Stages.PrivateSaleRoundTwoStart) return 'Private sale Round Two';\n    else if (currentStage == Stages.PrivateSaleRoundTwoEnd) return 'Private sale Round Two End';\n    else if (currentStage == Stages.PreSaleStart) return 'Pre ICO';\n    else if (currentStage == Stages.PreSaleEnd) return 'Pre ICO End';\n    else if (currentStage == Stages.PublicSaleStart) return 'Public Ico';\n    else if (currentStage == Stages.PublicSaleEnd) return 'Public Ico End';\n    else if (currentStage == Stages.CrowdSaleNotStarted) return 'crowdSale Not Started yet';\n    else if (currentStage == Stages.Pause) return 'paused';\n    }\n    \n    function setMinInvestmentAmmount(uint256 _privateRoundOne,uint256 _privateRoundTwo,uint256 _presale) public onlyOwner {\n        privateRoundOneMinimumInvestment = _privateRoundOne;\n        privateRoundTwoMinimumInvestment = _privateRoundTwo;\n        preSaleMinimumInvestment = _presale;\n    }\n    \n   /**\n   * @param _beneficiary Address performing the token purchase\n   */\n   function buyTokens(address _beneficiary) CrowdsaleStarted public payable {\n    require(whitelistedContributors[_beneficiary] == true );\n    require(!PrivateSaleInvestor[_beneficiary]);\n    require(Paused != true);\n    uint256 weiAmount = msg.value;\n    require(weiAmount > 0);\n    require(ethPrice > 0);\n    uint256 usdCents = weiAmount.mul(ethPrice).div(1 ether); \n    _preValidatePurchase(usdCents);\n    // calculate token amount to be created\n    uint256 tokens = _getTokenAmount(usdCents);\n    \n    _validateCapLimits(usdCents);\n    _processPurchase(_beneficiary,tokens);\n    wallet.transfer(msg.value);\n    emit TokenPurchase(msg.sender, _beneficiary, weiAmount, tokens);\n   }\n  \n   /**\n   * @dev sets the value of ether price in cents.Can be called only by the owner account.\n   * @param _ethPriceInCents price in cents .\n   */\n   function setEthPriceInCents(uint _ethPriceInCents) onlyOwner public returns(bool) {\n        ethPrice = _ethPriceInCents;\n        return true;\n    }\n   /**\n   * @dev Validation of an incoming purchase. Use require statemens to revert state when conditions are not met. Use super to concatenate validations.\n   * @param _usdCents Value in usdincents involved in the purchase\n   */\n   function _preValidatePurchase(uint256 _usdCents) internal view \n   {\n\n     if (currentStage == Stages.PrivateSaleRoundOneStart) {\n         \n        require(_usdCents >= privateRoundOneMinimumInvestment);  \n     }\n     else if (currentStage == Stages.PrivateSaleRoundTwoStart) {\n        require(_usdCents >= privateRoundTwoMinimumInvestment);\n     }\n     else if (currentStage == Stages.PreSaleStart){\n        require(_usdCents >= preSaleMinimumInvestment);\n     }\n     else if (currentStage == Stages.PublicSaleStart) {\n        require(_usdCents >= 0); \n     }\n     else{\n        revert();\n     }\n    }\n\n\n    /**\n    * @dev Validation of the capped restrictions.\n    * @param _cents cents amount\n    */\n    function _validateCapLimits(uint256 _cents) internal {\n     \n    if (currentStage == Stages.PrivateSaleRoundOneStart) {\n       privateSaleRoundOneRaised = privateSaleRoundOneRaised.add(_cents);\n       totalRaisedInCents = totalRaisedInCents.add(_cents);\n       require(totalRaisedInCents <= hardCap);\n    } \n    else if(currentStage == Stages.PrivateSaleRoundTwoStart) {\n      privateSaleRoundTwoRaised = privateSaleRoundTwoRaised.add(_cents);\n      totalRaisedInCents = totalRaisedInCents.add(_cents);\n      require(totalRaisedInCents <= hardCap);\n    }\n    else if(currentStage == Stages.PreSaleStart) {\n      presaleRaised = presaleRaised.add(_cents);\n      totalRaisedInCents = totalRaisedInCents.add(_cents);\n      require(totalRaisedInCents <= hardCap);\n    }\n    else if(currentStage == Stages.PublicSaleStart) {\n      publicsaleRaised = publicsaleRaised.add(_cents);\n      totalRaisedInCents = totalRaisedInCents.add(_cents);\n      require(totalRaisedInCents <= hardCap);\n    }\n    \n    else{\n    revert();\n    }\n  \n   }\n   \n   function sendPrivateSaleTokens(address _beneficiary,uint256 _tokenAmount)  CrowdsaleStarted onlyOwner public{\n     require(Paused != true);\n     require(totalRaisedInCents <= hardCap);\n     require(currentStage == Stages.PrivateSaleRoundOneStart || currentStage == Stages.PrivateSaleRoundTwoStart || currentStage == Stages.PreSaleStart || currentStage == Stages.PublicSaleStart);\n     uint256 tokens = _tokenAmount * 1 ether;\n     PrivateSaleInvestor[_beneficiary] = true;\n     require(token.saleTransfer(_beneficiary, tokens, true)); \n   }\n\n   function sendPublicSaleTokens(address _beneficiary,uint256 _tokenAmount)  CrowdsaleStarted onlyOwner public{\n     require(Paused != true);\n     require(totalRaisedInCents <= hardCap);\n     require(currentStage == Stages.PreSaleStart || currentStage == Stages.PublicSaleStart);\n     require(!PrivateSaleInvestor[_beneficiary]);\n     uint256 tokens = _tokenAmount * 1 ether;\n     require(token.saleTransfer(_beneficiary, tokens, false)); \n   }\n\n   /**\n   * @dev Source of tokens. Override this method to modify the way in which the crowdsale ultimately gets and sends its tokens.\n   * @param _beneficiary Address performing the token purchase\n   * @param _tokenAmount Number of tokens to be emitted\n   */\n   function _deliverTokens(address _beneficiary, uint256 _tokenAmount) internal {\n    \n    if(currentStage == Stages.PrivateSaleRoundOneStart || currentStage == Stages.PrivateSaleRoundTwoStart) {\n        PrivateSaleInvestor[_beneficiary] = true;\n        require(token.saleTransfer(_beneficiary, _tokenAmount, true)); \n    }\n    else{\n       PrivateSaleInvestor[_beneficiary] = false;\n       require(token.saleTransfer(_beneficiary, _tokenAmount, false));    \n    }\n   }\n\n   /**\n   * @dev Executed when a purchase has been validated and is ready to be executed. Not necessarily emits/sends tokens.\n   * @param _beneficiary Address receiving the tokens\n   * @param _tokenAmount Number of tokens to be purchased\n   */\n   function _processPurchase(address _beneficiary, uint256 _tokenAmount) internal {\n    _deliverTokens(_beneficiary, _tokenAmount);\n   }\n  \n\n    /**\n    * @param _usdCents Value in usd cents to be converted into tokens\n    * @return Number of tokens that can be purchased with the specified _usdCents\n    */\n    function _getTokenAmount(uint256 _usdCents) CrowdsaleStarted public view returns (uint256) {\n    uint256 tokens;\n    \n     \n      if (currentStage == Stages.PrivateSaleRoundOneStart) {\n\n         uint256 bonusPrivateSaleOne;\n         uint256 privateOneToSent;\n         bonusPrivateSaleOne = privateSaleRoundOneTokensPerDollar.div(100).mul(bonusInPrivateSaleRoundOne);\n         privateOneToSent = bonusPrivateSaleOne.add(privateSaleRoundOneTokensPerDollar);\n         tokens = _usdCents.div(100).mul(privateOneToSent);\n\n      }\n\n      if (currentStage == Stages.PrivateSaleRoundTwoStart) {\n\n         uint256 bonusPrivateSaleTwo;\n         uint256 privateTwoToSent;\n         bonusPrivateSaleTwo = privateSaleRoundTwoTokensPerDollar.div(100).mul(bonusInPrivateSaleRoundTwo);\n         privateTwoToSent = bonusPrivateSaleTwo.add(privateSaleRoundTwoTokensPerDollar);\n         tokens = _usdCents.div(100).mul(privateTwoToSent);\n\n      }\n\n      if (currentStage == Stages.PreSaleStart) {\n         uint256 bonusPreSale;\n         uint256 pretokensToSent;\n         bonusPreSale = presaleTokensPerDollar.div(100).mul(20);\n         pretokensToSent = bonusPreSale.add(presaleTokensPerDollar);\n         tokens = _usdCents.div(100).mul(pretokensToSent);\n      }\n      if (currentStage == Stages.PublicSaleStart) {\n         uint256 bonusPublicSale;\n         uint256 PublictokensToSent;\n         bonusPublicSale = publicsaleTokensPerDollar.div(100).mul(5);\n         PublictokensToSent = bonusPublicSale.add(publicsaleTokensPerDollar);\n         tokens = _usdCents.div(100).mul(PublictokensToSent);\n      }\n    \n      return tokens;\n    }\n    \n    /**\n       * @dev burn the unsold tokens.\n       \n       */\n    function burnTokens() public onlyOwner {\n        require(currentStage == Stages.PublicSaleEnd);\n        require(token.burnTokensForSale());\n    }\n        \n    /**\n    * @dev finalize the crowdsale.After finalizing ,tokens transfer can be done.\n    */\n    function finalizeSale() public  onlyOwner {\n        require(currentStage == Stages.PublicSaleEnd);\n        require(vestingAddress != address(0));\n        token.finalize();\n        TokenVesting(vestingAddress).setIcoFinalizedTime();\n    }\n\n    \n    function setPriceforAllPhases(uint256 _privateSaleRoundOne,uint256 _privateSaleRoundTwo, uint256 _preSale, uint256 _publicSale) public onlyOwner {\n    \n       privateSaleRoundOneTokensPerDollar = _privateSaleRoundOne * 1 ether;\n       privateSaleRoundTwoTokensPerDollar = _privateSaleRoundTwo * 1 ether;\n       presaleTokensPerDollar = _preSale * 1 ether;\n       publicsaleTokensPerDollar = _publicSale * 1 ether;\n    }\n\n    function setBonusforAllPhases(uint256 _bonusInPrivateSaleRoundOne,uint256 _bonusInPrivateSaleRoundTwo, uint256 _bonusInPreSale, uint256 _bonusInPublicSale) public onlyOwner {\n    \n       bonusInPrivateSaleRoundOne = _bonusInPrivateSaleRoundOne ;\n       bonusInPrivateSaleRoundTwo = _bonusInPrivateSaleRoundTwo;\n       bonusInPreSale = _bonusInPreSale;\n       bonusInPublicSale = _bonusInPublicSale;\n    }\n\n    \n    function setVestingAddress(address _vestingAddress) public onlyOwner {\n        require(_vestingAddress != address(0));\n        require(vestingAddress == address(0));\n        vestingAddress = _vestingAddress;\n    }\n    \n    function isSoftCapReached() public view returns(bool){\n        if(totalRaisedInCents >= softCap){\n            return true;\n        }\n        else {\n            return false;\n        }\n    }\n    \n\n    function bonusInCurrentSale() public view returns (uint256)\n    {\n     if (currentStage == Stages.PrivateSaleRoundOneStart) {\n      return bonusInPrivateSaleRoundOne;  \n     \n     }\n     else if (currentStage == Stages.PrivateSaleRoundTwoStart) {\n      return bonusInPrivateSaleRoundTwo; \n     \n     }\n     else if (currentStage == Stages.PreSaleStart) {\n      return bonusInPreSale; \n     \n     }\n    \n     else if (currentStage == Stages.PublicSaleStart) {\n      return bonusInPublicSale; \n     \n     }\n     else {\n         return 0;\n     }\n\n    }\n    \n    \n    function minimumInvestmentInCurrentSale() public view returns(uint256){\n     if (currentStage == Stages.PrivateSaleRoundOneStart) {\n      return privateRoundOneMinimumInvestment;  \n     \n     }\n     else if (currentStage == Stages.PrivateSaleRoundTwoStart) {\n      return privateRoundTwoMinimumInvestment; \n     \n     }\n     else if (currentStage == Stages.PreSaleStart) {\n      return preSaleMinimumInvestment; \n     \n     }\n    \n     else if (currentStage == Stages.PublicSaleStart) {\n      return 0; \n     \n     }\n\n    } \n\n    function tokensPerDollarInCurrentSale() public view returns(uint256){\n\n     if (currentStage == Stages.PrivateSaleRoundOneStart) {\n      return privateSaleRoundOneTokensPerDollar;  \n     \n     }\n     else if (currentStage == Stages.PrivateSaleRoundTwoStart) {\n      return privateSaleRoundTwoTokensPerDollar; \n     \n     }\n     else if (currentStage == Stages.PreSaleStart) {\n      return presaleTokensPerDollar; \n     \n     }\n    \n     else if (currentStage == Stages.PublicSaleStart) {\n      return publicsaleTokensPerDollar; \n     \n     }\n\n    } \n\n\n\n}",
  "sourcePath": "/home/abhi/Desktop/Projects/RUC/contracts/Crowdsale.sol",
  "compiler": {
    "name": "solc",
    "version": "0.4.25+commit.59dbf8f1.Emscripten.clang"
  },
  "schemaVersion": "2.0.2",
  "updatedAt": "2019-06-17T09:57:18.104Z"
}