{
  "contractName": "TokenVesting",
  "abi": [
    {
      "constant": true,
      "inputs": [],
      "name": "tokenVestedSecondPhase",
      "outputs": [
        {
          "name": "",
          "type": "uint256"
        }
      ],
      "payable": false,
      "stateMutability": "view",
      "type": "function"
    },
    {
      "constant": true,
      "inputs": [],
      "name": "teamTokensSent",
      "outputs": [
        {
          "name": "",
          "type": "uint256"
        }
      ],
      "payable": false,
      "stateMutability": "view",
      "type": "function"
    },
    {
      "constant": true,
      "inputs": [],
      "name": "icoFinalizedTime",
      "outputs": [
        {
          "name": "",
          "type": "uint256"
        }
      ],
      "payable": false,
      "stateMutability": "view",
      "type": "function"
    },
    {
      "constant": true,
      "inputs": [
        {
          "name": "",
          "type": "address"
        }
      ],
      "name": "beneficiaryDetails",
      "outputs": [
        {
          "name": "beneficiaryAddress",
          "type": "address"
        },
        {
          "name": "tokens",
          "type": "uint256"
        },
        {
          "name": "member",
          "type": "uint256"
        },
        {
          "name": "tokenVestedInitially",
          "type": "uint256"
        },
        {
          "name": "tokenreleasedFirstPhase",
          "type": "uint256"
        },
        {
          "name": "tokenreleasedSecondPhase",
          "type": "uint256"
        },
        {
          "name": "tokenreleasedThirdPhase",
          "type": "uint256"
        },
        {
          "name": "tokenreleasedFourthPhase",
          "type": "uint256"
        },
        {
          "name": "tokenreleasedTotal",
          "type": "uint256"
        }
      ],
      "payable": false,
      "stateMutability": "view",
      "type": "function"
    },
    {
      "constant": true,
      "inputs": [],
      "name": "tokensAvailableForVesting",
      "outputs": [
        {
          "name": "",
          "type": "uint256"
        }
      ],
      "payable": false,
      "stateMutability": "view",
      "type": "function"
    },
    {
      "constant": true,
      "inputs": [
        {
          "name": "",
          "type": "address"
        }
      ],
      "name": "VestedAfterThirdphase",
      "outputs": [
        {
          "name": "",
          "type": "bool"
        }
      ],
      "payable": false,
      "stateMutability": "view",
      "type": "function"
    },
    {
      "constant": true,
      "inputs": [],
      "name": "advisorsTokensSent",
      "outputs": [
        {
          "name": "",
          "type": "uint256"
        }
      ],
      "payable": false,
      "stateMutability": "view",
      "type": "function"
    },
    {
      "constant": true,
      "inputs": [
        {
          "name": "",
          "type": "address"
        }
      ],
      "name": "VestedAfterFirstphase",
      "outputs": [
        {
          "name": "",
          "type": "bool"
        }
      ],
      "payable": false,
      "stateMutability": "view",
      "type": "function"
    },
    {
      "constant": true,
      "inputs": [],
      "name": "tokenVestedThirdPhase",
      "outputs": [
        {
          "name": "",
          "type": "uint256"
        }
      ],
      "payable": false,
      "stateMutability": "view",
      "type": "function"
    },
    {
      "constant": false,
      "inputs": [],
      "name": "acceptOwnership",
      "outputs": [],
      "payable": false,
      "stateMutability": "nonpayable",
      "type": "function"
    },
    {
      "constant": true,
      "inputs": [],
      "name": "owner",
      "outputs": [
        {
          "name": "",
          "type": "address"
        }
      ],
      "payable": false,
      "stateMutability": "view",
      "type": "function"
    },
    {
      "constant": true,
      "inputs": [
        {
          "name": "",
          "type": "address"
        }
      ],
      "name": "released",
      "outputs": [
        {
          "name": "",
          "type": "uint256"
        }
      ],
      "payable": false,
      "stateMutability": "view",
      "type": "function"
    },
    {
      "constant": true,
      "inputs": [
        {
          "name": "",
          "type": "address"
        }
      ],
      "name": "VestedAfterSecondphase",
      "outputs": [
        {
          "name": "",
          "type": "bool"
        }
      ],
      "payable": false,
      "stateMutability": "view",
      "type": "function"
    },
    {
      "constant": true,
      "inputs": [
        {
          "name": "",
          "type": "address"
        }
      ],
      "name": "vestedAfterIcoFinalize",
      "outputs": [
        {
          "name": "",
          "type": "bool"
        }
      ],
      "payable": false,
      "stateMutability": "view",
      "type": "function"
    },
    {
      "constant": true,
      "inputs": [],
      "name": "newOwner",
      "outputs": [
        {
          "name": "",
          "type": "address"
        }
      ],
      "payable": false,
      "stateMutability": "view",
      "type": "function"
    },
    {
      "constant": true,
      "inputs": [],
      "name": "CrowdsaleAddress",
      "outputs": [
        {
          "name": "",
          "type": "address"
        }
      ],
      "payable": false,
      "stateMutability": "view",
      "type": "function"
    },
    {
      "constant": true,
      "inputs": [],
      "name": "_token",
      "outputs": [
        {
          "name": "",
          "type": "address"
        }
      ],
      "payable": false,
      "stateMutability": "view",
      "type": "function"
    },
    {
      "constant": false,
      "inputs": [
        {
          "name": "_newOwner",
          "type": "address"
        }
      ],
      "name": "transferOwnership",
      "outputs": [],
      "payable": false,
      "stateMutability": "nonpayable",
      "type": "function"
    },
    {
      "constant": true,
      "inputs": [],
      "name": "tokenVestedFirstPhase",
      "outputs": [
        {
          "name": "",
          "type": "uint256"
        }
      ],
      "payable": false,
      "stateMutability": "view",
      "type": "function"
    },
    {
      "inputs": [
        {
          "name": "token",
          "type": "address"
        },
        {
          "name": "_CrowdsaleAddress",
          "type": "address"
        },
        {
          "name": "_owner",
          "type": "address"
        }
      ],
      "payable": false,
      "stateMutability": "nonpayable",
      "type": "constructor"
    },
    {
      "anonymous": false,
      "inputs": [
        {
          "indexed": false,
          "name": "amount",
          "type": "uint256"
        }
      ],
      "name": "Released",
      "type": "event"
    },
    {
      "anonymous": false,
      "inputs": [
        {
          "indexed": true,
          "name": "from",
          "type": "address"
        },
        {
          "indexed": true,
          "name": "_to",
          "type": "address"
        }
      ],
      "name": "OwnershipTransferred",
      "type": "event"
    },
    {
      "constant": false,
      "inputs": [
        {
          "name": "_beneficiary",
          "type": "address"
        },
        {
          "name": "_tokens",
          "type": "uint256"
        },
        {
          "name": "_member",
          "type": "uint256"
        }
      ],
      "name": "vestTokens",
      "outputs": [],
      "payable": false,
      "stateMutability": "nonpayable",
      "type": "function"
    },
    {
      "constant": false,
      "inputs": [
        {
          "name": "_beneficiary",
          "type": "address"
        }
      ],
      "name": "release",
      "outputs": [],
      "payable": false,
      "stateMutability": "nonpayable",
      "type": "function"
    },
    {
      "constant": false,
      "inputs": [],
      "name": "setIcoFinalizedTime",
      "outputs": [],
      "payable": false,
      "stateMutability": "nonpayable",
      "type": "function"
    },
    {
      "constant": true,
      "inputs": [],
      "name": "currentVestingPeriod",
      "outputs": [
        {
          "name": "",
          "type": "string"
        }
      ],
      "payable": false,
      "stateMutability": "view",
      "type": "function"
    }
  ],
  "bytecode": "0x60806040526aba1d9a70c21cda8100000060065534801561001f57600080fd5b5060405160608061148383398101604090815281516020830151919092015160008054600160a060020a0319908116600160a060020a03938416178255600280548216958416959095179094556003805490941691909216179091556113f890819061008b90396000f3006080604052600436106101325763ffffffff7c0100000000000000000000000000000000000000000000000000000000600035041663039729c681146101375780630799f2d31461015e5780631916558714610173578063218c418214610196578063294a5727146101ab5780632e0427aa1461021d578063491b7a8f14610232578063496b45a01461024757806353c0dc0d1461027c5780635d138505146102915780635fc0813e1461031b57806360aed6d31461033c57806379ba5097146103515780638da5cb5b146103665780639852595c14610397578063a361c4c0146103b8578063b281f6bf146103d9578063d1ef4e91146103fa578063d4ee1d9014610421578063e34dd75514610436578063ecd0c0c31461044b578063f2fde38b14610460578063ff833b8514610481575b600080fd5b34801561014357600080fd5b5061014c610496565b60408051918252519081900360200190f35b34801561016a57600080fd5b5061014c61049c565b34801561017f57600080fd5b50610194600160a060020a03600435166104a2565b005b3480156101a257600080fd5b5061014c6105e1565b3480156101b757600080fd5b506101cc600160a060020a03600435166105e7565b60408051600160a060020a03909a168a5260208a0198909852888801969096526060880194909452608087019290925260a086015260c085015260e084015261010083015251908190036101200190f35b34801561022957600080fd5b5061014c61063c565b34801561023e57600080fd5b50610194610642565b34801561025357600080fd5b50610268600160a060020a03600435166106a2565b604080519115158252519081900360200190f35b34801561028857600080fd5b5061014c6106b7565b34801561029d57600080fd5b506102a66106bd565b6040805160208082528351818301528351919283929083019185019080838360005b838110156102e05781810151838201526020016102c8565b50505050905090810190601f16801561030d5780820380516001836020036101000a031916815260200191505b509250505060405180910390f35b34801561032757600080fd5b50610268600160a060020a036004351661090e565b34801561034857600080fd5b5061014c610923565b34801561035d57600080fd5b50610194610929565b34801561037257600080fd5b5061037b6109b1565b60408051600160a060020a039092168252519081900360200190f35b3480156103a357600080fd5b5061014c600160a060020a03600435166109c0565b3480156103c457600080fd5b50610268600160a060020a03600435166109d2565b3480156103e557600080fd5b50610268600160a060020a03600435166109e7565b34801561040657600080fd5b50610194600160a060020a03600435166024356044356109fc565b34801561042d57600080fd5b5061037b610b1c565b34801561044257600080fd5b5061037b610b2b565b34801561045757600080fd5b5061037b610b3a565b34801561046c57600080fd5b50610194600160a060020a0360043516610b49565b34801561048d57600080fd5b5061014c610b8f565b600d5481565b60045481565b60008054600160a060020a031633146104ba57600080fd5b6104c382610b95565b9050600081116104d257600080fd5b600160a060020a0382166000908152600f60205260409020546104fb908263ffffffff61137016565b600160a060020a038084166000818152600f602090815260408083209590955560025485517fb48422440000000000000000000000000000000000000000000000000000000081526004810194909452602484018790529451949093169363b4842244936044808501949193918390030190829087803b15801561057e57600080fd5b505af1158015610592573d6000803e3d6000fd5b505050506040513d60208110156105a857600080fd5b50506040805182815290517ffb81f9b30d73d830c3544b34d827c08142579ee75710b490bab0b3995468c5659181900360200190a15050565b600b5481565b601060205260009081526040902080546001820154600283015460038401546004850154600586015460068701546007880154600890980154600160a060020a03909716979596949593949293919290919089565b60065481565b600354600160a060020a0316331461065957600080fd5b42600b8190556106719061070863ffffffff61137016565b600c81905561068790607863ffffffff61137016565b600d81905561069d90607863ffffffff61137016565b600e55565b600a6020526000908152604090205460ff1681565b60055481565b6060600b546000141561072e57606060405190810160405280602181526020017f56657374696e6720506572696f64206973206e6f74207374617274656420596581526020017f7400000000000000000000000000000000000000000000000000000000000000815250905061090b565b600b5442101580156107415750600c5442105b156107aa57606060405190810160405280602481526020017f49636f2069732046696e616c697365642032352520746f6b656e20697320766581526020017f7374656400000000000000000000000000000000000000000000000000000000815250905061090b565b600c5442101580156107bd5750600d5442105b1561082657606060405190810160405280602981526020017f33206d6f6e74687320697320636f6d706c657465642035302520746f6b656e2081526020017f6973207665737465640000000000000000000000000000000000000000000000815250905061090b565b600d5442101580156108395750600e5442105b156108a257606060405190810160405280602981526020017f36206d6f6e74687320697320636f6d706c657465642037352520746f6b656e2081526020017f6973207665737465640000000000000000000000000000000000000000000000815250905061090b565b600e54421061090b57606060405190810160405280602b81526020017f3132206d6f6e74687320697320636f6d706c65746564203130302520746f6b6581526020017f6e2069732076657374656400000000000000000000000000000000000000000081525090505b90565b60086020526000908152604090205460ff1681565b600e5481565b600154600160a060020a0316331461094057600080fd5b60015460008054604051600160a060020a0393841693909116917f8be0079c531659141344cd1fd0a4f28419497f9722a3daafe3b4186f6b6457e091a3600180546000805473ffffffffffffffffffffffffffffffffffffffff19908116600160a060020a03841617909155169055565b600054600160a060020a031681565b600f6020526000908152604090205481565b60096020526000908152604090205460ff1681565b60076020526000908152604090205460ff1681565b60008054600160a060020a03163314610a1457600080fd5b600b5415610a2157600080fd5b600160a060020a0384161515610a3657600080fd5b600160a060020a038085166000908152601060205260409020541615610a5b57600080fd5b50600160a060020a0383166000818152601060205260409020805473ffffffffffffffffffffffffffffffffffffffff19169091178155670de0b6b3a76400008302600180830182905560028301849055600390920181905590821415610ae757600454610acf908263ffffffff61137016565b60048190556006541015610ae257600080fd5b610b16565b816002141561013257600554610b03908263ffffffff61137016565b60058190556006541015610ae257600080fd5b50505050565b600154600160a060020a031681565b600354600160a060020a031681565b600254600160a060020a031681565b600054600160a060020a03163314610b6057600080fd5b6001805473ffffffffffffffffffffffffffffffffffffffff1916600160a060020a0392909216919091179055565b600c5481565b600160a060020a0381166000908152601060205260408120600b5482904210801590610bc25750600c5442105b15610caf57600160a060020a03841660009081526007602052604090205460ff1615610bed57600080fd5b6003820154610c0390600463ffffffff61138616565b6004830154909150610c1b908263ffffffff61137016565b6004808401919091556003830154610c389163ffffffff61138616565b60048301541115610c4857600080fd5b610c7f8260070154610c738460060154610c738660050154876004015461137090919063ffffffff16565b9063ffffffff61137016565b6008830155600160a060020a0384166000908152600760205260409020805460ff19166001179055915081611369565b600c544210158015610cc25750600d5442105b15610e4a5760088201541515610dd857600160a060020a03841660009081526007602052604090205460ff1615610cf857600080fd5b600160a060020a03841660009081526008602052604090205460ff1615610d1e57600080fd5b6003820154610d3490600263ffffffff61138616565b600583018190556003830154909150610d5490600263ffffffff61138616565b60058301546004840154610d6d9163ffffffff61137016565b1115610d7857600080fd5b610da38260070154610c738460060154610c738660050154876004015461137090919063ffffffff16565b600880840191909155600160a060020a038516600090815260209190915260409020805460ff19166001179055915081611369565b60008260080154118015610e0457506003820154610dfd90600463ffffffff61138616565b8260080154145b15610e4557600160a060020a03841660009081526008602052604090205460ff1615610e2f57600080fd5b6003820154610d3490600463ffffffff61138616565b611369565b600d544210158015610e5d5750600e5442105b156110df5760088201541515610fca57600160a060020a03841660009081526007602052604090205460ff1615610e9357600080fd5b600160a060020a03841660009081526008602052604090205460ff1615610eb957600080fd5b600160a060020a03841660009081526009602052604090205460ff1615610edf57600080fd5b610f086003610efc6004856003015461138690919063ffffffff16565b9063ffffffff6113a716565b6006830154909150610f20908263ffffffff61137016565b6006830155600380830154610f419190610efc90600463ffffffff61138616565b610f648360060154610c738560050154866004015461137090919063ffffffff16565b1115610f6f57600080fd5b610f9a8260070154610c738460060154610c738660050154876004015461137090919063ffffffff16565b6008830155600160a060020a0384166000908152600960205260409020805460ff19166001179055915081611369565b60008260080154118015610ff657506003820154610fef90600463ffffffff61138616565b8260080154145b1561105d57600160a060020a03841660009081526008602052604090205460ff161561102157600080fd5b600160a060020a03841660009081526009602052604090205460ff161561104757600080fd5b6003820154610f0890600263ffffffff61138616565b600382015461107390600463ffffffff61138616565b82600801541015801561109e5750600382015461109790600263ffffffff61138616565b8260080154145b15610e4557600160a060020a03841660009081526009602052604090205460ff16156110c957600080fd5b6003820154610f0890600463ffffffff61138616565b600e54421061136957600882015415156111d257600160a060020a0384166000908152600a602052604090205460ff161561111957600080fd5b5060038101546007820154611134908263ffffffff61137016565b8260070181905550816003015461116c8360070154610c738560060154610c738760050154886004015461137090919063ffffffff16565b111561117757600080fd5b6111a28260070154610c738460060154610c738660050154876004015461137090919063ffffffff16565b6008830155600160a060020a0384166000908152600a60205260409020805460ff19166001179055915081611369565b600082600801541180156111fe575060038201546111f790600463ffffffff61138616565b8260080154145b1561125e57600160a060020a0384166000908152600a602052604090205460ff161561122957600080fd5b6112466003610efc6004856003015461138690919063ffffffff16565b6007830154909150611134908263ffffffff61137016565b600382015461127490600463ffffffff61138616565b82600801541015801561129f5750600382015461129890600263ffffffff61138616565b8260080154145b156112e057600160a060020a0384166000908152600a602052604090205460ff16156112ca57600080fd5b600382015461124690600263ffffffff61138616565b60038201546112f690600263ffffffff61138616565b82600801541015801561132857506113216003610efc6004856003015461138690919063ffffffff16565b8260080154145b1561136957600160a060020a0384166000908152600a602052604090205460ff161561135357600080fd5b600382015461124690600463ffffffff61138616565b5050919050565b8181018281101561138057600080fd5b92915050565b600080821161139457600080fd5b818381151561139f57fe5b049392505050565b8181028215806113c157508183828115156113be57fe5b04145b151561138057600080fd00a165627a7a72305820500cd84bf2163bd80e50fe419819a4c9377a2971ceadfa9e5aa74ff07d3e5f7c0029",
  "source": "pragma solidity ^0.4.24;\n\nimport \"./Owned.sol\";\nimport \"./SafeMath.sol\";\n\n\ncontract RamaToken {\n    function vestingTransfer(address, uint256) public pure returns (bool) {}\n    \n}\n\n\n/**\n * @title TokenVesting\n * @dev A token holder contract that can release its token balance gradually like a\n * typical vesting scheme, with a cliff and vesting period. Optionally revocable by the\n * owner.\n */\ncontract TokenVesting is Owned {\n    using SafeMath for uint256;\n    event Released(uint256 amount);\n  \n    RamaToken public _token;\n    address public CrowdsaleAddress;\n    uint256 public teamTokensSent;\n    uint256 public advisorsTokensSent;\n    \n    \n    uint256 public tokensAvailableForVesting = 225000000 * 1 ether;\n    \n    \n    \n    mapping (address => bool) public vestedAfterIcoFinalize;// after ico finalised\n    mapping (address => bool) public VestedAfterFirstphase;//after 3 months\n    mapping (address => bool) public VestedAfterSecondphase; // after 6 months\n    mapping (address => bool) public VestedAfterThirdphase;// after 12 months    \n    \n    uint256 public icoFinalizedTime;\n    uint256 public tokenVestedFirstPhase;\n    uint256 public tokenVestedSecondPhase;\n    uint256 public tokenVestedThirdPhase;\n    \n    \n    mapping (address => uint256) public released;\n    \n    struct beneficiary {\n        address beneficiaryAddress;\n        uint256 tokens;\n        uint256 member;\n        uint256 tokenVestedInitially;\n        uint256 tokenreleasedFirstPhase;// ico completion\n        uint256 tokenreleasedSecondPhase;// after 3 months\n        uint256 tokenreleasedThirdPhase; // after 6 months\n        uint256 tokenreleasedFourthPhase; // after 12 months\n        uint256 tokenreleasedTotal;    \n        \n         \n    }\n    mapping(address => beneficiary) public beneficiaryDetails;\n    \n    constructor(RamaToken token,address _CrowdsaleAddress,address _owner) Owned(_owner) public {\n      _token = token;\n      CrowdsaleAddress = _CrowdsaleAddress;\n    }\n    \n    /**\n    * @dev Creates a vesting contract that vests its balance of any ERC20 token to the\n    * _beneficiary, gradually in a linear fashion until _start  By then all\n    * of the balance will have vested.\n    * @param _beneficiary address of the beneficiary to whom vested tokens are transferred\n    * @param _member ,uint value to identify vesting beneficiary ( 1 for core team,2 for advisor and 3 for marketing )\n    */\n\n    function vestTokens(address _beneficiary, uint256 _tokens, uint256 _member) public onlyOwner {    \n\n      require(icoFinalizedTime ==0);\n      require(_beneficiary != address(0));\n      require(beneficiaryDetails[_beneficiary].beneficiaryAddress == (0x0));\n      uint256 tokens = _tokens * 1 ether;\n      \n      beneficiaryDetails[_beneficiary].beneficiaryAddress  = _beneficiary;\n      beneficiaryDetails[_beneficiary].tokens = _tokens * 1 ether;\n      beneficiaryDetails[_beneficiary].member = _member;\n      beneficiaryDetails[_beneficiary].tokenVestedInitially =_tokens * 1 ether;\n      \n      if(_member == 1 ) {\n        teamTokensSent = teamTokensSent.add(tokens);\n        require(teamTokensSent <= tokensAvailableForVesting); \n      } \n      else if(_member == 2) {\n        advisorsTokensSent = advisorsTokensSent.add(tokens);\n        require(advisorsTokensSent <= tokensAvailableForVesting);\n      } \n      else {\n          revert();\n      }\n    }\n\n    /**\n    * @notice Transfers vested tokens to beneficiary.\n    * @param  _beneficiary address of benefeciary for which tokens are getting vested\n    */\n    function release(address _beneficiary) public onlyOwner {\n       uint256 unreleased = vestedAmount(_beneficiary);\n       require(unreleased > 0);\n       released[_beneficiary] = released[_beneficiary].add(unreleased);\n       _token.vestingTransfer(_beneficiary, unreleased);\n       emit Released(unreleased);\n    }\n\n    //Calculate vested Amount  \n    function vestedAmount(address _beneficiary)  internal  returns(uint256) {\n\n        beneficiary storage benefeciaryOb = beneficiaryDetails[_beneficiary];\n        uint256 vestedAmountNow;\n        \n        if(now >= icoFinalizedTime && now < tokenVestedFirstPhase ) // 25 % Released after ico finalised can be collected between ico finalised time to 3 months\n        {\n            \n            require(vestedAfterIcoFinalize[_beneficiary]==false);\n            vestedAmountNow = benefeciaryOb.tokenVestedInitially.div(4);\n            benefeciaryOb.tokenreleasedFirstPhase = benefeciaryOb.tokenreleasedFirstPhase.add(vestedAmountNow);\n            require(benefeciaryOb.tokenreleasedFirstPhase <= benefeciaryOb.tokenVestedInitially.div(4));\n            benefeciaryOb.tokenreleasedTotal = benefeciaryOb.tokenreleasedFirstPhase.add(benefeciaryOb.tokenreleasedSecondPhase).add(benefeciaryOb.tokenreleasedThirdPhase).add(benefeciaryOb.tokenreleasedFourthPhase);\n            vestedAfterIcoFinalize[_beneficiary]=true;\n            return vestedAmountNow;\n            \n        }\n    \n        else if(now >= tokenVestedFirstPhase && now < tokenVestedSecondPhase )// total 50% released in between 3 months and 6 months \n        {\n            \n             if(benefeciaryOb.tokenreleasedTotal==0)//0% released\n             {\n              require(vestedAfterIcoFinalize[_beneficiary]==false);     \n              require(VestedAfterFirstphase[_beneficiary]==false);     \n              vestedAmountNow = benefeciaryOb.tokenVestedInitially.div(2);     \n              benefeciaryOb.tokenreleasedSecondPhase = vestedAmountNow;\n              require(benefeciaryOb.tokenreleasedFirstPhase.add(benefeciaryOb.tokenreleasedSecondPhase) <= benefeciaryOb.tokenVestedInitially.div(2));\n              benefeciaryOb.tokenreleasedTotal = benefeciaryOb.tokenreleasedFirstPhase.add(benefeciaryOb.tokenreleasedSecondPhase).add(benefeciaryOb.tokenreleasedThirdPhase).add(benefeciaryOb.tokenreleasedFourthPhase);\n              VestedAfterFirstphase[_beneficiary]=true;\n              return vestedAmountNow;\n             }\n             else if(benefeciaryOb.tokenreleasedTotal>0 && benefeciaryOb.tokenreleasedTotal == benefeciaryOb.tokenVestedInitially.div(4))\n             {\n              require(VestedAfterFirstphase[_beneficiary]==false);     \n              vestedAmountNow = benefeciaryOb.tokenVestedInitially.div(4);\n              benefeciaryOb.tokenreleasedSecondPhase = vestedAmountNow;\n              require(benefeciaryOb.tokenreleasedFirstPhase.add(benefeciaryOb.tokenreleasedSecondPhase) <= benefeciaryOb.tokenVestedInitially.div(2));   \n              benefeciaryOb.tokenreleasedTotal = benefeciaryOb.tokenreleasedFirstPhase.add(benefeciaryOb.tokenreleasedSecondPhase).add(benefeciaryOb.tokenreleasedThirdPhase).add(benefeciaryOb.tokenreleasedFourthPhase);      \n              VestedAfterFirstphase[_beneficiary]=true;\n              return vestedAmountNow;\n              }\n\n\n        }\n        \n        else if(now >= tokenVestedSecondPhase && now < tokenVestedThirdPhase ) // total 75 % released in between 6 months and 12 months \n        {\n\n            if(benefeciaryOb.tokenreleasedTotal==0)// 0% released\n             {\n              require(vestedAfterIcoFinalize[_beneficiary]==false);\n              require(VestedAfterFirstphase[_beneficiary]==false);\n              require(VestedAfterSecondphase[_beneficiary]==false);\n              vestedAmountNow = benefeciaryOb.tokenVestedInitially.div(4).mul(3);     \n              benefeciaryOb.tokenreleasedThirdPhase = benefeciaryOb.tokenreleasedThirdPhase.add(vestedAmountNow);\n              require(benefeciaryOb.tokenreleasedFirstPhase.add(benefeciaryOb.tokenreleasedSecondPhase).add(benefeciaryOb.tokenreleasedThirdPhase) <= benefeciaryOb.tokenVestedInitially.div(4).mul(3));\n              benefeciaryOb.tokenreleasedTotal = benefeciaryOb.tokenreleasedFirstPhase.add(benefeciaryOb.tokenreleasedSecondPhase).add(benefeciaryOb.tokenreleasedThirdPhase).add(benefeciaryOb.tokenreleasedFourthPhase);          \n              VestedAfterSecondphase[_beneficiary]=true;\n              return vestedAmountNow;\n             }\n             else if(benefeciaryOb.tokenreleasedTotal>0 && benefeciaryOb.tokenreleasedTotal == benefeciaryOb.tokenVestedInitially.div(4)) // 25%released\n             {\n              require(VestedAfterFirstphase[_beneficiary]==false);\n              require(VestedAfterSecondphase[_beneficiary]==false);\n              vestedAmountNow = benefeciaryOb.tokenVestedInitially.div(2);\n              benefeciaryOb.tokenreleasedThirdPhase = benefeciaryOb.tokenreleasedThirdPhase.add(vestedAmountNow);  \n              require(benefeciaryOb.tokenreleasedFirstPhase.add(benefeciaryOb.tokenreleasedSecondPhase).add(benefeciaryOb.tokenreleasedThirdPhase) <= benefeciaryOb.tokenVestedInitially.div(4).mul(3));   \n              benefeciaryOb.tokenreleasedTotal = benefeciaryOb.tokenreleasedFirstPhase.add(benefeciaryOb.tokenreleasedSecondPhase).add(benefeciaryOb.tokenreleasedThirdPhase).add(benefeciaryOb.tokenreleasedFourthPhase);\n              VestedAfterSecondphase[_beneficiary]=true;\n              return vestedAmountNow;\n             }\n             else if(benefeciaryOb.tokenreleasedTotal>=benefeciaryOb.tokenVestedInitially.div(4) && benefeciaryOb.tokenreleasedTotal == benefeciaryOb.tokenVestedInitially.div(2) )//50% Released already\n             {\n              require(VestedAfterSecondphase[_beneficiary]==false);\n              vestedAmountNow = benefeciaryOb.tokenVestedInitially.div(4);\n              benefeciaryOb.tokenreleasedThirdPhase = benefeciaryOb.tokenreleasedThirdPhase.add(vestedAmountNow);  \n              require(benefeciaryOb.tokenreleasedFirstPhase.add(benefeciaryOb.tokenreleasedSecondPhase).add(benefeciaryOb.tokenreleasedThirdPhase) <= benefeciaryOb.tokenVestedInitially.div(4).mul(3));   \n              benefeciaryOb.tokenreleasedTotal = benefeciaryOb.tokenreleasedFirstPhase.add(benefeciaryOb.tokenreleasedSecondPhase).add(benefeciaryOb.tokenreleasedThirdPhase).add(benefeciaryOb.tokenreleasedFourthPhase);            \n              VestedAfterSecondphase[_beneficiary]=true;\n              return vestedAmountNow;\n             }\n\n\n        }\n        \n        else if(now >= tokenVestedThirdPhase) \n        {\n\n            if(benefeciaryOb.tokenreleasedTotal==0)// 0 % released\n             {\n              require(VestedAfterThirdphase[_beneficiary]==false);     \n              vestedAmountNow = benefeciaryOb.tokenVestedInitially;     \n              benefeciaryOb.tokenreleasedFourthPhase = benefeciaryOb.tokenreleasedFourthPhase.add(vestedAmountNow);\n              require(benefeciaryOb.tokenreleasedFirstPhase.add(benefeciaryOb.tokenreleasedSecondPhase).add(benefeciaryOb.tokenreleasedThirdPhase).add(benefeciaryOb.tokenreleasedFourthPhase) <= benefeciaryOb.tokenVestedInitially);\n              benefeciaryOb.tokenreleasedTotal = benefeciaryOb.tokenreleasedFirstPhase.add(benefeciaryOb.tokenreleasedSecondPhase).add(benefeciaryOb.tokenreleasedThirdPhase).add(benefeciaryOb.tokenreleasedFourthPhase);              \n              VestedAfterThirdphase[_beneficiary]=true;\n              return vestedAmountNow;\n             }\n             else if(benefeciaryOb.tokenreleasedTotal>0 && benefeciaryOb.tokenreleasedTotal == benefeciaryOb.tokenVestedInitially.div(4) ) // 25 % released already\n             {\n              require(VestedAfterThirdphase[_beneficiary]==false);\n              vestedAmountNow = benefeciaryOb.tokenVestedInitially.div(4).mul(3);\n              benefeciaryOb.tokenreleasedFourthPhase = benefeciaryOb.tokenreleasedFourthPhase.add(vestedAmountNow);\n              require(benefeciaryOb.tokenreleasedFirstPhase.add(benefeciaryOb.tokenreleasedSecondPhase).add(benefeciaryOb.tokenreleasedThirdPhase).add(benefeciaryOb.tokenreleasedFourthPhase) <= benefeciaryOb.tokenVestedInitially);\n              benefeciaryOb.tokenreleasedTotal = benefeciaryOb.tokenreleasedFirstPhase.add(benefeciaryOb.tokenreleasedSecondPhase).add(benefeciaryOb.tokenreleasedThirdPhase).add(benefeciaryOb.tokenreleasedFourthPhase);              \n              VestedAfterThirdphase[_beneficiary]=true;\n              return vestedAmountNow;\n             }\n             else if(benefeciaryOb.tokenreleasedTotal>=benefeciaryOb.tokenVestedInitially.div(4) && benefeciaryOb.tokenreleasedTotal == benefeciaryOb.tokenVestedInitially.div(2) )//50 % released already\n             {\n              require(VestedAfterThirdphase[_beneficiary]==false);\n              vestedAmountNow = benefeciaryOb.tokenVestedInitially.div(2);\n              benefeciaryOb.tokenreleasedFourthPhase = benefeciaryOb.tokenreleasedFourthPhase.add(vestedAmountNow);\n              require(benefeciaryOb.tokenreleasedFirstPhase.add(benefeciaryOb.tokenreleasedSecondPhase).add(benefeciaryOb.tokenreleasedThirdPhase).add(benefeciaryOb.tokenreleasedFourthPhase) <= benefeciaryOb.tokenVestedInitially);\n              benefeciaryOb.tokenreleasedTotal = benefeciaryOb.tokenreleasedFirstPhase.add(benefeciaryOb.tokenreleasedSecondPhase).add(benefeciaryOb.tokenreleasedThirdPhase).add(benefeciaryOb.tokenreleasedFourthPhase);              \n              VestedAfterThirdphase[_beneficiary]=true;\n              return vestedAmountNow;\n             }\n             \n             else if(benefeciaryOb.tokenreleasedTotal>=benefeciaryOb.tokenVestedInitially.div(2) && benefeciaryOb.tokenreleasedTotal == benefeciaryOb.tokenVestedInitially.div(4).mul(3) )//75% released already \n             {\n              require(VestedAfterThirdphase[_beneficiary]==false);\n              vestedAmountNow = benefeciaryOb.tokenVestedInitially.div(4);\n              benefeciaryOb.tokenreleasedFourthPhase = benefeciaryOb.tokenreleasedFourthPhase.add(vestedAmountNow);\n              require(benefeciaryOb.tokenreleasedFirstPhase.add(benefeciaryOb.tokenreleasedSecondPhase).add(benefeciaryOb.tokenreleasedThirdPhase).add(benefeciaryOb.tokenreleasedFourthPhase) <= benefeciaryOb.tokenVestedInitially);\n              benefeciaryOb.tokenreleasedTotal = benefeciaryOb.tokenreleasedFirstPhase.add(benefeciaryOb.tokenreleasedSecondPhase).add(benefeciaryOb.tokenreleasedThirdPhase).add(benefeciaryOb.tokenreleasedFourthPhase); \n              VestedAfterThirdphase[_beneficiary]=true;\n              return vestedAmountNow;\n             }\n\n\n\n        }\n    }\n    \n    function setIcoFinalizedTime() public {\n    \n        require(msg.sender == CrowdsaleAddress);\n        icoFinalizedTime = now ;// first phase after ico completion 25% Released\n        tokenVestedFirstPhase = icoFinalizedTime.add(30 minutes);  //  3 months\n        tokenVestedSecondPhase = tokenVestedFirstPhase.add(2 minutes); // after 6 months\n        tokenVestedThirdPhase = tokenVestedSecondPhase.add(2 minutes); // after 12 months\n        \n\n    }\n    \n    function currentVestingPeriod() public view returns(string){\n        if(icoFinalizedTime==0 )\n        {\n            \n           return 'Vesting Period is not started Yet';\n        }\n        else if(now >= icoFinalizedTime && now < tokenVestedFirstPhase )\n        {\n            return 'Ico is Finalised 25% token is vested';\n        }\n        else if(now >= tokenVestedFirstPhase && now < tokenVestedSecondPhase )\n        {\n            return '3 months is completed 50% token is vested';        }\n        else if(now >= tokenVestedSecondPhase && now < tokenVestedThirdPhase)\n        {\n            return '6 months is completed 75% token is vested';\n        }\n        else if (now >= tokenVestedThirdPhase) {return '12 months is completed 100% token is vested';}\n\n\n    }\n\n}",
  "sourcePath": "/home/abhi/Desktop/Projects/RUC/contracts/TokenVesting.sol",
  "compiler": {
    "name": "solc",
    "version": "0.4.25+commit.59dbf8f1.Emscripten.clang"
  },
  "schemaVersion": "2.0.2",
  "updatedAt": "2019-06-17T09:57:18.137Z"
}